:020000040800F2
:10000000A8040020D5180008B1180008B31800088B
:10001000B5180008B7180008B9180008000000005B
:10002000000000000000000000000000BB180008F5
:10003000BD18000800000000BF180008C118000823
:100040000119000805190008091900080D19000810
:100050001119000815190008191900081D190008C0
:100060002119000825190008291900082D19000870
:100070003119000835190008391900083D19000820
:100080004119000845190008491900084D190008D0
:100090005119000855190008591900085D19000880
:1000A0006119000865190008691900086D19000830
:1000B0007119000875190008791900087D190008E0
:1000C0008119000885190008891900088D19000890
:1000D0009119000895190008991900089D19000840
:1000E000A1190008A5190008A9190008AD190008F0
:1000F000B1190008B5190008B9190008BD190008A0
:10010000C1190008C5190008C9190008CD1900084F
:10011000D1190008D5190008D9190008DD190008FF
:10012000E1190008E5190008E9190008ED190008AF
:10013000F1190008F5190008F9190008FD1900085F
:10014000011A0008051A0008091A00080D1A00080B
:10015000111A0008151A0008191A00081D1A0008BB
:10016000211A0008251A0008291A00082D1A00086B
:10017000311A0008351A00080000000000000000D5
:10018000391A00083D1A00082DE9FC47050065D022
:10019000DFF87876DFF88466BC68F86800F003085A
:1001A0002878C10604F00C0448D524B10C2C08BFF3
:1001B000B8F1010F2CD13868810702D5A869002851
:1001C0004CD0396808074EBF396871680909286A38
:1001D00001F0F001814206D200F0DEFA00283DD1A4
:1001E00000F0F5F907E000F0F2F924B9286A00F010
:1001F000D3FA002832D100F086FABA6800F079FA12
:10020000DFF81006006800F01DFB010016D0D8E1F1
:10021000A86928B3396841F00101396000F034FB66
:1002200081463868810707D400F02EFBA0EB090057
:100230000328F6D30320C4E100F0C9F92878C107E8
:1002400056D5082C04D00C2C08BFB8F1030F18D1D8
:10025000386881034CD56868002849D10120B0E195
:10026000386840084000386000F00EFB814638686E
:100270008107E3D500F008FBA0EB09000328F6D3C3
:10028000D8E76868B0F5803F04D1386840F4803022
:10029000386011E0B0F5A02F386806D140F4802016
:1002A0003860396841F4803105E020F480303860EE
:1002B000396821F480213960686860B100F0E4FA9F
:1002C00081463868810313D400F0DEFAA0EB090000
:1002D0006528F6D3AEE700F0D7FA81463868810387
:1002E00006D500F0D1FAA0EB09006528F6D3A1E706
:1002F0002878810713D5042C04D00C2C08BFB8F142
:10030000020F22D13868410502D5E8680028A5D03F
:100310007868296920F0F85040EA01607860287810
:10032000010743D568690028706830D040F00100AB
:10033000706000F0A9FA80467068810736D400F03A
:10034000A3FA00F040F9F7D374E7E86878B13968A8
:1003500041F48071396000F097FA804638684105B1
:10036000D6D400F091FA00F02EF9F7D362E738689E
:1003700020F48070386000F087FA804638684105C4
:10038000CDD500F081FA00F01EF9F7D352E740080E
:100390004000706000F078FA80467068810705D5EB
:1003A00000F072FA00F00FF9F7D343E7287841071D
:1003B00067D5B86DC1004FF000080AD4B86D40F0A1
:1003C0008050B8654FF00108B86D00F08050009083
:1003D0000098DFF84C94D9F80000C10513D4D9F87F
:1003E000000040F48070C9F8000000F04DFA824629
:1003F000D9F80000C10506D400F046FAA0EB0A00C7
:100400000328F5D316E7A868012804D1306840F026
:100410000100306010E00528306806D140F004008B
:100420003060316841F0010105E040084000306073
:10043000316821F004013160A86841F2893960B166
:1004400000F022FA82463068810713D400F01CFACB
:10045000A0EB0A004845F6D3ECE600F015FA824618
:100460003068810706D500F00FFAA0EB0A00484576
:10047000F6D3DFE6B8F1000F03D0B86D20F080505E
:10048000B865A86A002800F09B80022878D1F86837
:10049000EA6A00F00301914201BF00F070012A6B8B
:1004A000521EB1EB021F1ED16A6B00F4FE41B1EB8C
:1004B000022F18D1A96B07290CBF0021012100F4DC
:1004C00000328A420FD1EA6B520800F4C001521E7A
:1004D000B1EB425F07D1296C490800F0C060491EAA
:1004E000B0EB416F48D00C2C4BD03868410101D49F
:1004F0003868C1003FF5B2AE386820F080703860CF
:1005000000F0C2F904463868810105D500F0BCF955
:10051000001B0328F7D38DE6F868DFF80813EA6AB2
:100520000840296B1043491E40EA0110EA6B696BD1
:10053000520840EA0120296C521E490840EA425004
:10054000491E40EA4160A96B090940EA4140F86050
:10055000386840F080703860F96841F08071F96067
:1005600000F092F904463868810129D400F08CF932
:10057000001B0328F7D35DE63868810120D4E7E744
:100580000C2C3FF46BAE386820F08070386039680E
:1005900011F0205F03D1F86880088000F860F968E6
:1005A000DFF884020140F96000F06EF90446386813
:1005B000810105D500F068F9001B0328F7D339E65F
:1005C0000020BDE8F687A0EB0800032870473868D4
:1005D00040F0080038603968286A21F0F0010143D2
:1005E00039607968E86921F47F4141EA0021796046
:1005F00070472DE9F0410400884658D0DFF82C629E
:10060000306800F00700404509D23168C90848EA5F
:10061000C1013160306800F00700404547D12078C3
:10062000DFF8E851C1072AD56068032802D129689C
:100630008A0108E0022802D129688A0303E0002821
:10064000296802D18A0702D431E04A052FD5A9686A
:10065000890840EA8100A86000F016F90746A868FA
:10066000616800F00C00B0EB810F08D000F00CF9CD
:10067000C01B41F289318842F1D3032037E0207852
:10068000810705D5AA68A06822F0F0020243AA609B
:10069000316801F0070188450BD23068C00848EA8C
:1006A000C0003060316801F00701414501D00120F0
:1006B0001DE02078410705D5AA68E06822F4E062D1
:1006C0000243AA602178080706D5A968206921F4A9
:1006D000605141EAC001A96000F015F8AA6800F075
:1006E00008F8BDE8F0414B48006800F0ABB8BDE841
:1006F000F0814F49C2F30312895C454A01F01F01A2
:10070000C8401060704770B5404A4A4B9068D66840
:100710000025002110F00C0006F00306464C03D023
:100720000C2812D1012E1AD115682E0704D43A4D87
:100730002E68C6F3032502E01568C5F303153F4E86
:1007400056F8255048B9294624E0042808BF214618
:1007500020D008281ED119461CE00C281AD1D068D8
:1007600000F00300022803D0032808BF1D4600E064
:100770002546D168D068D268C0F306204543C1F34E
:100780000210C2F34161401C491CB5FBF0F0490066
:10079000B0FBF1F1084670BD7CB5294E05463068C6
:1007A0000024C10002D500F075F80EE0306840F07A
:1007B00080503060316801F080510091009800F065
:1007C00069F8316821F080513160B0F5007F04D1C3
:1007D000802D0CD9A12D09D304E0802D88BF0324DE
:1007E00005D801D1022402E0702D00D101240F4868
:1007F0000168C90844EAC1010160006800F007000F
:10080000A04201D0012076BD002076BD001002403C
:100810000C000020080000209410024090100240BC
:10082000007000408C809DF9FFFFEEFE002002402A
:10083000DC17000800127A000024F400EC1700080E
:100840005810024070B50E4E044630780025A0B115
:100850004FF47A710B4AB1FBF0F11068B0FBF1F084
:1008600000F092F848B9102C07D2002221464FF030
:10087000FF3000F06BF8B46000E00125284670BD41
:10088000000000200C00002001484068704700BFB5
:1008900000000020DFF87400006800F4C0607047BA
:1008A00010B5DFF86810B0F5007F086800F4C0608C
:1008B00019D1B0F5007F1FD00868DFF85420DFF8A9
:1008C000544020F4C06040F4007000F017F800E0DD
:1008D000401E4A69530501D50028F9D148694105F0
:1008E0000AD5032010BDB0F5806F05D0086820F44C
:1008F000C06040F480600860002010BD08603220B5
:1009000013684343B3FBF4F0401C70470070004091
:100910000C00002040420F000901020002D42448CC
:1009200081547047234B02F00F021A4402F8041C52
:100930007047214B19684FF6FF020002114000F486
:10094000E06008431D4908431860704770B51A4BB2
:100950001C68C4F302230124C3F10705052D2EBF33
:100960000F2504FA05F56D1E1E1D072E34BF00234A
:10097000DB1E2940994004FA03F3BDE870405B1E7A
:100980001A401143C8E7000010B5401EB0F1807F47
:1009900001D3012010BD0A4C60600F214FF0FF30E1
:1009A000FFF7BAFF0021A16007202060002010BDE2
:1009B00000E400E018ED00E00CED00E00000FA05B6
:1009C00010E000E002206870211D206800F0A7F907
:1009D00001202873A870E87028716871A871E87107
:1009E00028726872A872E8726870002032BD38B54B
:1009F000040001D1012032BD00F006F918B900F061
:100A0000FFF800F04FFBDDE770B500F0DFF809B943
:100A100002780FE0042908BF42780BD0082908BFEC
:100A2000827807D00C2908BFC27803D010290CBFE8
:100A300002794279012A01D0012070BD11B9022248
:100A4000027014E0042902D1022242700FE008294A
:100A500002D1022282700AE00C2902D10222C27065
:100A600005E0102907BF022202710223437100F042
:100A700038F800F03AF818BF904208D088421FBFFB
:100A8000DFF86451A842DFF86461B04201D100F0A0
:100A900023F82068984218BFB0F1804F0BD000F0C7
:100AA00018F81CBF4B4DA84205D000F00FF81CBF32
:100AB0009042884206D100F080F818BFB1F5803F1F
:100AC00002D0206800F097F8002070BD424B984299
:100AD00070473D4B98427047456C45F4004545646E
:100AE00070472068012200F0B9BA2068354B3B4AB4
:100AF0003B499842704770B500F047F800F04BF85A
:100B00001CBF364EB24200F03BF809D000F031F87D
:100B10001FBFDFF8D460B242DFF8D0309A4206D16E
:100B2000166A0E4204BF136A034200F038F800F060
:100B300023F804BF116A014200F037F814B901210B
:100B4000017014E0042C02D1012141700FE0082C47
:100B500002D1012181700AE00C2C02D10121C17067
:100B600005E0102C07BF0121017101224271002014
:100B700070BD1B4B9A4270472A68136A0B4270473C
:100B800040F2444041F21111704705460C46286876
:100B9000002200F063BA2A680A4B9A42704703D1D8
:100BA000536C23F400435364704703D11168490820
:100BB0004900116005F13E00704781680948014015
:100BC00006297047002C014000040040044604F14F
:100BD0003E00704700080040000C00400034014017
:100BE000004001400700010000440140004801406E
:100BF000C16001222868016841F00101016070476D
:100C0000002129702046704704F13C056878704740
:100C100038B500F07EF801D1022032BD012084F801
:100C20003C0052B1042A19D0082A29D00C2A38D005
:100C3000102A48D0142A57D067E0206800F0C5F881
:100C40002168886940F008008861886920F0040004
:100C500088618A69286902438A6156E0206800F049
:100C6000F5F82068816941F400618161816921F4AE
:100C70008061816181692A6941EA0221816144E0E0
:100C8000206800F01CF92168C86940F00800C861BC
:100C9000C86920F00400C861CA6928690243CA61B2
:100CA00033E0206800F043F92068C16941F4006135
:100CB000C161C16921F48061C161C1692A6941EAE8
:100CC0000221C16121E0206800F058F92168486DD7
:100CD00040F008004865486D20F0040048654A6D02
:100CE000286902434A6510E0206800F071F9206825
:100CF000416D41F400614165416D21F480614165C0
:100D0000416D2A6941EA02214165002084F83C00D6
:100D100032BD04460D4694F83C00012870472DE989
:100D2000F043DFF80873D0F800C0DFF80433DFF8D1
:100D30000443DFF80453DFF80463DFF804E3DFF86B
:100D40000483DFF80493B84218BFB0F1804F07D096
:100D5000484518BF404503D0704518BFB0420ED17A
:100D60004A68B8422CF0700C18BFB0F1804F42EACC
:100D70000C0C0CD048451CBF4045704507D0B04214
:100D800018BFA84203D0A04218BF984204D1CA6835
:100D90002CF4407C42EA0C0C4A692CF0800C42EAAC
:100DA0000C020260B8428A68C26218BFB0420A6888
:100DB000826204D0A8421CBFA042984201D10969B6
:100DC000016301224261BDE8F0832DE9F041026A2E
:100DD000DFF85882DFF864E2DFF85872DFF858C2B3
:100DE000520852000262066A44688569DFF85C2294
:100DF0000B6826F0020615408A6816431D434045DD
:100E000018BF70458A4B04D060451CBFB842984259
:100E10000DD1CA6826F008061643404518BF704534
:100E200026F0040605D0604518BFB84201D09842AC
:100E300005D14B698A6924F440741C43144344600F
:100E40008561496841630662BDE8F081F0B5026AD8
:100E500022F010020262056A436884697C4A0E68C7
:100E600014408A6844EA062425F0200545EA021564
:100E70006E4E724AB04218BF904208D1CF6825F03A
:100E8000800545EA0715B04225F040050AD090429A
:100E90001CBF694A904205D0664EB0421CBF644AEE
:100EA000904206D14E698A6923F44063164343EAAF
:100EB000860343608461496881630562F0BDF0B5D3
:100EC000026A624B22F480720262066A4468C56953
:100ED0000A6826F400761D408B6846EA032615430F
:100EE000524B564A984218BF904208D1CF6826F418
:100EF000006646EA0726984226F480660AD09042A9
:100F00001CBF4D4A904205D04A4B98421CBF484AEC
:100F1000904206D14B698A6924F44054134344EA51
:100F200003144460C5614968C1630662F0BD70B5D1
:100F3000026A22F480520262036A4468C569444A24
:100F400000F06DF823F4005343EA0233B0421CBFB3
:100F50003A4A904207D0384EB0421FBF354A9042BD
:100F6000334EB04204D14A6924F4804444EA8214E6
:100F70004460C56149680164036270BD70B5026A6E
:100F8000344B22F480320262046A4568466D0A6876
:100F90001E4016438B68254A24F4003444EA034477
:100FA00090421CBF254B984207D0234A90421FBF56
:100FB000204B98421E4A904204D14A6925F480355C
:100FC00045EA02254560466549688165046270BD51
:100FD00070B5026A22F480120262036A4468456DA9
:100FE0001D4A00F01CF823F4001343EA0253B042F8
:100FF0001CBF124A904207D00F4EB0421FBF0D4A8D
:1010000090420B4EB04204D14A6924F4802444EA51
:101010008224446045654968C165036270BD0E68FD
:10102000154045EA06258A68004E7047002C0140AD
:1010300000480140004401400040014000340140AC
:10104000000C004000080040000400408CFFFEFF40
:10105000FF8CFFFE8FFFFEFFFF8FFFFE10B501F03C
:101060001F01036A01248C40A343036202FA01F1C9
:10107000036A1943016210BD374881B0816841F0AD
:1010800001018160816801F001010091009902680D
:1010900042F080520260006800F08050009000989A
:1010A00001B0704781B000682B49B0F1804F08D182
:1010B000086840F001000860096801F00101009132
:1010C0000AE0264A904208D1886840F4803088605F
:1010D000886800F480300090009801B0704710B527
:1010E00086B0044614220021684600F03DF82068CE
:1010F0001B49B0F1804F10D1086840F00100086032
:101100000222096801F0010105912021059800F0F3
:101110001DF84FF09040012112E0104A904213D187
:10112000086840F0020008600222096801F002012C
:1011300005914FF4804105980A4800F007F80E2108
:101140000491694600F01AF806B010BD00910192B2
:101150000021029103917047581002400040014065
:101160004C1002400004004810B5044610460A46E0
:101170000146204600F0F2F8204610BD2DE9F84F58
:101180004FF000096C4A6D4B4FF00F0805460E46B4
:1011900034E06B4CA54214BF072406248C406949F7
:1011A0003C4341F82C40C143146801EA040C7468C4
:1011B000E40348BF40EA0C0CC2F800C0546801EADE
:1011C000040C7468A40348BF40EA0C0CC2F804C0C5
:1011D000946801EA040C7468E40248BF40EA0C0C0D
:1011E000C2F808C0D46801EA040C7168890248BFDB
:1011F00040EA0C0CC2F80CC009F10109316831FA5F
:1012000009F000F09780012404FA09F414EA0100BF
:10121000F2D04FEA490C032101FA0CF16FEA010EFA
:101220007168E443012918BF022903D0112918BFAE
:10123000122910D1A968F7680EEA010107FA0CF724
:101240003943A96069687768C7F30017214007FA36
:1012500009F739436960716801F00307032F07D16B
:10126000EF6AC1F3C0013C4001FA09F10C43EC62A2
:10127000E968B4680EEA010104FA0CF42143E9605C
:101280004FEA89017468022C18BF122C12D14FEA60
:10129000D90405EB840401F01C07D4F820A008FA57
:1012A00007FB2AEA0B0AD6F810B00BFA07F747EA51
:1012B0000A0727622C680EEA0407347904F0030455
:1012C00004FA0CF43C432C607468E40094D51C6868
:1012D00044F001041C604FEA990C1C6804F00104FE
:1012E000009401F00C01009C164C54F82C4008FAB4
:1012F00001F724EA0707B5F1904F08BF002418D082
:10130000114CA54208BF012413D0104CA54208BFC0
:1013100002240ED00E4CA54208BF032409D00D4C68
:10132000A54208BF042404D00B4CA5427FF431AF82
:10133000052433E7BDE8F18F00040140601002404E
:101340000018004808000140000400480008004858
:10135000000C0048001000480014004862F30F22FF
:1013600062F31F42401810F0030308D0C91A1FD3BC
:10137000DB0748BF00F8012D28BF20F8022D13001D
:1013800030B414461546103928BF20E93C00FAD87D
:10139000490728BF20E90C0048BF40F8042D890008
:1013A00028BF20F8022D48BF00F8012D30BC70473F
:1013B000C91818BF00F8012DCB0728BF00F8012D70
:1013C000704730B4002513E050F8042BD30744BF16
:1013D000A9F101039A18091F042942F8045BFAD203
:1013E00013468C0744BF15809B1CC90748BF1D705E
:1013F00050F8041B0029E7D130BC7047F0B595B018
:1014000000F004F900F09EF87C487D4C01687D4FA7
:1014100041F00101016040F28F15026802F0010203
:10142000009240F2E7360099026842F00202026040
:101430000C22006800F0020000900021009800F0EB
:10144000B5F800F07AF82C2200210AA8FFF78CFEEC
:101450006D4820600021A16021616161A16165602A
:10146000E6602046FFF7C3FA002100910291204672
:10147000694600F0F1F860200021039004910022F9
:101480000691089105920792099203A92046FFF759
:10149000BFFB00204FF400510A900B900C900D9070
:1014A0000E900F9114900AA9204600F015F92046DD
:1014B000FFF715FE0C2200F078F800F03EF84FF030
:1014C000804038600021B9603961B9617D60FE609B
:1014D0003846FFF78CFA00210091029138466946A0
:1014E00000F0BAF86021039100220492059207925D
:1014F00003A93846FFF78CFB3846FFF7F0FD0021C3
:101500002046FFF781FA00213846FFF77DFA0024D4
:101510000025642000F02EF9A0B228B1B0F57A7F42
:1015200003D16FF0630500E064252C19A0B200F030
:1015300040F8A0B200F04EF8EBE71C22002103A80F
:10154000FFF712BE80B596B04422002105A8FFF730
:101550000BFE142200F029F801210B9100226021DA
:101560000D910C92012110911191022228210F92CC
:1015700012911020059007220221139214911591C7
:1015800005A8FEF701FE0F20032100900191002223
:1015900002920392049204216846FFF72AF84FF45E
:1015A0000070FFF77DF917B000BD00216846FFF716
:1015B000DBBD18B5044687B000211248FFF79BFA3F
:1015C0006021009101940021029100220492694659
:1015D0000B4C09E018B587B0602200920190002200
:1015E000029204926946074C2046FFF711FB002146
:1015F0002046FFF709FA08B010BD00004C10024069
:101600005C0000201000002000400140032010B5C5
:10161000FFF78FF90020FFF715F90024002814BF09
:101620000124FFF729FD204610BD30B40EE002680A
:10163000436802440830DC0744BFA9F10104E31801
:1016400052F8045B43F8045B091FF9D150F8041BFE
:101650000029ECD130BC7047F0B500F13C04227891
:10166000012A01D10220F0BD012222700223637001
:101670000668DFF860E07768DFF8ECC0B5687645AB
:1016800018BF664503D14B6827F470071F430A68EB
:1016900027F07007174377600268724518BFB2F1F0
:1016A000804F0CD02E4882421CBF304B9A4206D04D
:1016B0002A4882421EBF62452D4B9A4204D1886857
:1016C00025F08005054395600121617000202070A0
:1016D000F0BD0000002C014030B590F83C20012AFC
:1016E00001D1022030BD012280F83C20CC688B68FB
:1016F0004A6824F440741C4324F4806414430B6847
:101700000A6924F400641C4324F4805414434B6994
:101710008A6A24F400541C4324F4804414438B69E3
:10172000104A24F4702444EA0344036893421CBF23
:101730000D4DAB420CD14A6A24F4700444EA0254C1
:10174000CA69096A24F08074144324F000740C43BD
:101750005C64002280F83C20002030BD000C00407A
:1017600000040040002C014000340140000800400B
:101770000040014038B50446FFF786F814F1010F28
:10178000054602D0044801786418FFF77DF8401B35
:10179000A042FAD331BD00BF000000200C49086808
:1017A00040F00100086000228A604FF480520B680C
:1017B000084803400B60CA6000200B68064A23F407
:1017C00080230B6088614FF000611160704700005A
:1017D00000100240FFFFF6EA08ED00E00000000004
:1017E000000000000102030406070809A0860100AA
:1017F000400D0300801A060000350C0040420F0027
:1018000080841E0000093D0000127A000024F400CC
:1018100000366E010048E801006CDC0210B5074993
:1018200079441831064C7C44163404E00A68081DDB
:10183000114488470146A142F8D110BD08000000BC
:10184000280000007FFBFFFF980000001000002030
:1018500000000000D7FDFFFF10000000880000001E
:10186000000000200000000000F00DF8002801D06A
:10187000FFF7D4FFAFF300800020AFF30080FFF745
:10188000BDFD00F002F80120704700F001B8000033
:101890000746384600F002F8FBE7000080B5AFF3DA
:1018A0000080024A11001820ABBEFBE726000200B0
:1018B0007047FEE7FEE7FEE7FEE7704770477047B8
:1018C00000F000B80248416802788A184260704708
:1018D0000000002001488047014800479D1700088C
:1018E000F5180008010000000000000010000000D2
:1018F00000093D00AFF30080AFF30080FFF7B4FFB5
:10190000FFF7FEBFFFF7FEBFFFF7FEBFFFF7FEBF0B
:10191000FFF7FEBFFFF7FEBFFFF7FEBFFFF7FEBFFB
:10192000FFF7FEBFFFF7FEBFFFF7FEBFFFF7FEBFEB
:10193000FFF7FEBFFFF7FEBFFFF7FEBFFFF7FEBFDB
:10194000FFF7FEBFFFF7FEBFFFF7FEBFFFF7FEBFCB
:10195000FFF7FEBFFFF7FEBFFFF7FEBFFFF7FEBFBB
:10196000FFF7FEBFFFF7FEBFFFF7FEBFFFF7FEBFAB
:10197000FFF7FEBFFFF7FEBFFFF7FEBFFFF7FEBF9B
:10198000FFF7FEBFFFF7FEBFFFF7FEBFFFF7FEBF8B
:10199000FFF7FEBFFFF7FEBFFFF7FEBFFFF7FEBF7B
:1019A000FFF7FEBFFFF7FEBFFFF7FEBFFFF7FEBF6B
:1019B000FFF7FEBFFFF7FEBFFFF7FEBFFFF7FEBF5B
:1019C000FFF7FEBFFFF7FEBFFFF7FEBFFFF7FEBF4B
:1019D000FFF7FEBFFFF7FEBFFFF7FEBFFFF7FEBF3B
:1019E000FFF7FEBFFFF7FEBFFFF7FEBFFFF7FEBF2B
:1019F000FFF7FEBFFFF7FEBFFFF7FEBFFFF7FEBF1B
:101A0000FFF7FEBFFFF7FEBFFFF7FEBFFFF7FEBF0A
:101A1000FFF7FEBFFFF7FEBFFFF7FEBFFFF7FEBFFA
:101A2000FFF7FEBFFFF7FEBFFFF7FEBFFFF7FEBFEA
:101A3000FFF7FEBFFFF7FEBFFFF7FEBFFFF7FEBFDA
:04000005080018F5E2
:00000001FF
