:020000040800F2
:10000000008001202D03000851B8020839030008C0
:100010008503000889030008D103000800000000E0
:1000200000000000000000000000000019040008AB
:100030001D0400080000000079B702084595020879
:10004000494400084944000849440008494400085C
:100050004944000849440008C597020899970208D6
:100060006D97020841970208159702084944000855
:10007000494400084944000849440008494400082C
:10008000494400084944000849440008494400081C
:10009000494400084944000849440008CD96020834
:1000A00049440008494400084944000849440008FC
:1000B00049440008494400084944000849440008EC
:1000C00049440008059802083598020895980208E6
:1000D0004944000849960208494400084944000878
:1000E000759602084944000849440008494400083C
:1000F00049440008494400084944000849440008AC
:100100004944000849440008494400082D99020860
:10011000494400084944000849440008494400088B
:100120004944000849440008F9980208C5980208A3
:10013000494400084944000849440008494400086B
:10014000494400084944000849440008494400085B
:10015000E195020815960208494400084944000840
:10016000494400084944000849440008494400083B
:100170004944000849440008000000000000000055
:10018000494400084944000880B582B0DFF898D19E
:1001900084B004F0CDF8DFF848C1524B524E534FB3
:1001A000534A32609C453A601FD2524840EA0C01E3
:1001B000013B49076246A3EB0C0352D12B2B50D9CC
:1001C0009B08591C4FEA510E00EBCE0E0346F3E894
:1001D00002457345E2E80245F9D1CA0721F001035F
:1001E00003D550F823204CF823203268424B9A4222
:1001F00000D0FEE73A68414B9A42FAD1404B414C5D
:10020000414F424E3A4A3A60A342326024D2621EC3
:10021000D21A9508172A05F10105C3F3800116D9F2
:100220009C4611B100224CF8042B6D1A03EB81039C
:100230006A0803EBC20200200021E3E802019A42AF
:10024000F9D125F0010295420CEB820304D0002283
:1002500043F8042BA342FAD33B680BB9346864B16A
:10026000FEE723F0030304332249034451F8040B4F
:1002700042F8040B9942F9D1B7E704F065F801A9F7
:10028000684604F003F8224D224BED1A1E46AD10CD
:1002900003E056F8043B98470134A542F9DC1E4BB5
:1002A0001E4CE41A1E46A410002503E056F8043B39
:1002B00098470135AC42F9DCDDE9000128F070FB1C
:1002C000174E184B9B1B05469C1003E0013C56F84B
:1002D00024309847002CF9DC284603F0ADFF00BF1E
:1002E000000000206C0200200000002068020020B6
:1002F000BABADECA907F0308785634123254769820
:1003000080020020E00A012080020020DC0A012097
:100310005C0400085C0400085C0400088404000815
:1003200084040008980400080080012008B5FFF745
:100330002BFF00BF00BEFEE71EF0040F0CBFEFF363
:100340000880EFF309807146374A10472DE9F041E4
:100350000A4C82B0676BD4F83880A66A0D46044612
:1003600003F0DEFF064803F0B3FF009543463A462C
:100370003146204603F0EAFF00BEFEE700ED00E054
:100380006818030800BEFEE71EF0040F0CBFEFF371
:100390000880EFF309807146244A10472DE9F041A7
:1003A000094C82B0676BD4F83880A66A0D460446C3
:1003B000064803F08DFF009543463A4631462046F5
:1003C00003F0C4FF00BEFEE700ED00E0781803086C
:1003D0001EF0040F0CBFEFF30880EFF309807146A5
:1003E000134A10472DE9F041094C82B0676BD4F8ED
:1003F0003880A66A0D460446064803F069FF00955A
:1004000043463A463146204603F0A0FF00BEFEE7D1
:1004100000ED00E08418030800BEFEE700BEFEE722
:1004200000BEFEE7704700004D0300089D03000872
:04043000E5030008D8
:10043400907F0308000000206C020020907F0308D6
:10044400000000100000001080020020E00A0120DB
:1004540000000010000000104D71000871900208A7
:1004640025940208D59C020859AB0208B9AF0208CA
:10047400F9B50208EDBB020899D50208C1D80208F3
:100484008191020891940208F19C020839BC020887
:0404940019D602086B
:1004A000704700BF08B5032000F022F80F2026F0A7
:1004B000D1F9FFF7F5FF002008BD00BF024A13681D
:1004C00001331360704700BF84020020014B18689D
:1004D000704700BF8402002038B50546FFF7F6FFDD
:1004E0000446FFF7F3FF001BA842FAD338BD00BF54
:1004F0000749CA6803024FF6FF0003F4E0630240B5
:10050000134343F0BF6343F40033CB60704700BF35
:1005100000ED00E0704700BF08B5FFF7FBFF08BD26
:10052000002851D0F0B4314B046886689C4242D90F
:100530002F4A304B304D2244A3FB02321209920065
:10054000C3680169C76933430B4341690B43022107
:1005500080F8251081690B4321683B43076A21F429
:100560007F5121F030013B430B43B6F5804FC0E98A
:100570001052236011D0214B9D4227D0D3F8A814EC
:100580000F24944021EA0401C3F8A8144168D3F869
:10059000A84491402143C3F8A81400230122C36357
:1005A00080F8243080F82520C0E90B33C0E90D33F2
:1005B000F0BC18467047124A0E4B104D2244A3FB64
:1005C000023212099200BBE701207047D5F8A8302B
:1005D0000F21914023EA0103C5F8A8304368D5F8FC
:1005E000A81093400B43C5F8A830D6E70704024093
:1005F000F8FBFDBFCDCCCCCC000402400000024093
:10060000F8FFFDBF002841D002682149136810B4EB
:1006100023F0010300248A42136014601FD91D4B8C
:100620001D491E4C1344A1FB03231B091C499B00BD
:10063000C0E9101301229A404A60D4F8A8240F217F
:1006400001FA03F322EA0303C4F8A8340023C363C6
:1006500080F8243080F8253010BC18467047114BC4
:100660000D491344A1FB03231B090C4A9B00C0E95D
:100670001023012199405160D2F8A8100F2404FAE8
:1006800003F321EA0303C2F8A830DFE70120704733
:1006900007040240F8FBFDBFCDCCCCCC00000240EB
:1006A00000040240F8FFFDBF30B490F82440012C54
:1006B0003DD0012480F8244090F82540012C5FFAB9
:1006C00084FC05D0002380F8243030BC0220704721
:1006D000022580F8255004680025C563256825F0AB
:1006E00001052560456C0CFA05F5D0F840C0CCF842
:1006F000045063608368102B036B0BBFA260A16082
:10070000E160E26053B1236843F00E032360236885
:1007100043F001030020236030BC7047236823F0BE
:1007200004032360236843F00A032360EFE70220F9
:1007300030BC704790F82530022B03D00423C363EC
:10074000012070470368426C196821F00E0119609E
:10075000196821F0010119604FF0010C036C0CFACB
:1007600002F25A60002380F825C080F82430184631
:10077000704700BF90F82520022A03D00422C263EC
:10078000012070470268116821F00E0110B5116058
:10079000116821F001011160D0E910124FF0010C35
:1007A0000CFA02F24A60826B80F825C0002480F8BF
:1007B000244012B19047204610BD104610BD00BF26
:1007C00070B4066C426C31680468042393400B4299
:1007D00025680ED015F0040F0BD02268920603D4C2
:1007E000226822F004022260026B7360CAB170BCFE
:1007F0001047022393400B4215D015F0020F12D080
:100800002268920606D4226822F00A02226001229F
:1008100080F82520C26A7360002180F82410002A25
:10082000E5D170BC7047082393400B42F9D02B07E9
:10083000F7D52368416B23F00E032360012303FAED
:1008400002F200247260C36380F8244080F82530EF
:100850000029E6D070BC08472DE9F0470D6882B04A
:10086000002D00F0B380002301229A4012EA050611
:1008700000F0A7804C6824F01007022F00F0A98038
:10088000D0F800A04FEA430E4FF0030C0CFA0EFC18
:1008900004F003082AEA0C0A013F08FA0EF949EAB3
:1008A0000A09012F6FEA0C0CC0F8009040F2BA80E0
:1008B000B8F1030F07D1C76A27EA0207C4F3C002E1
:1008C0009A403A43C262C7688A680CEA070C02FA87
:1008D0000EF242EA0C02C260E20072D56C4FD7F809
:1008E00060C04CF0010CC7F860C03F6E23F00302FB
:1008F00002F1804207F0010702F58032019703F010
:100900000307DDF804C0D2F808E0BF004FF00F0C79
:100910000CFA07FCB0F1904F2EEA0C0C24D0DFF853
:1009200074E1704500F09880DFF86CE1704500F0EC
:100930009A80DFF868E1704500F08780DFF860E1B9
:10094000704500F09780DFF85CE1704500F0998019
:10095000DFF854E170450CBF4FF0060E4FF0070E64
:100960000EFA07F74CEA070C504FC2F808C03A6875
:10097000DFF838C1F74314F4803F14BF32433A40E4
:10098000CCF80020DCF80420DFF820C114F4003F8C
:1009900014BF32433A40CCF80420DCF80820DFF8DA
:1009A0000CC114F4801F14BF32433A40CCF8082025
:1009B000DCF80C20A40254BF07EA020616433B4AA7
:1009C000D660013335FA03F27FF44EAF02B0BDE8D2
:1009D000F0874FEAD30E00EB8E0E0F69DEF8208011
:1009E00003F0070C4FEA8C0C4FF00F0907FA0CF7D5
:1009F00009FA0CFC28EA0C0C47EA0C07CEF8207028
:100A000007684FEA430E4FF0030C0CFA0EFC04F09B
:100A1000030827EA0C0908FA0EF747EA09076FEA04
:100A20000C0C076087680CEA0709CF6807FA0EF715
:100A300047EA09078760476827EA0209C4F30017F5
:100A40009F4047EA0907476032E74FF0030E0EFA6E
:100A500007F74CEA070C87E74FF0010E0EFA07F78D
:100A60004CEA070C80E74FF0020E0EFA07F74CEA4B
:100A7000070C79E74FF0040E0EFA07F74CEA070C63
:100A800072E74FF0050E0EFA07F74CEA070C6BE71A
:100A9000001002400004004800080048000C004814
:100AA00000100048001400480018004800040140ED
:100AB000002900F090802DE9F0430023012606FA7A
:100AC00003FC1CEA010752D002684FF0030803FA46
:100AD00006FE08FA0EFE23FA08F500EB850542EA49
:100AE0000E02026003F00702D5F820900F24920056
:100AF00004FA02F229EA02022A62826822EA0E025B
:100B00008260426822EA0C024260C26822EA0E0257
:100B1000C260C56A23F0030909F1804925EA0C0582
:100B200009F5803903EA0802C562D9F80850920035
:100B30009440B0F1904F05EA04051ED0DFF898C04C
:100B400060453AD0254EB0423AD0254EB0423BD017
:100B5000244EB0423BD0244EB0422DD0234EB04262
:100B60000CBF0626072606FA02F2954208D001338A
:100B700031FA03F2A2D1BDE8F08300229542F6D10A
:100B8000D9F808501A4A25EA0404C9F8084014683C
:100B900024EA07041460546824EA07045460946843
:100BA00024EA07049460D468013324EA0707D76075
:100BB00031FA03F282D1DEE7052606FA02F2DDE71A
:100BC000022606FA02F2D9E708FA02F2D6E704266C
:100BD00006FA02F2D2E77047000400480008004815
:100BE000000C00480010004800140048001800489D
:100BF000000401400369194214BF0120002070471E
:100C00000AB1816170478162704700BF43695940F2
:100C100041617047044A5169014200D1704708B5EB
:100C2000506128F0E5FD08BD0004014070B50446A0
:100C30000D4616466B1C22682AD19369980725D465
:100C40009369D906F9D593699906FCD5102120231B
:100C5000D161D3619369980744BF0023936293697C
:100C6000D90703D4936943F0010393615368204883
:100C700000210340042620255360666484F8401058
:100C800084F8415084F84210012070BD002070BDEE
:100C900093699B07FAD49369D8061AD425B1FFF754
:100CA00015FC831BAB42C5D9636C002243F02003C3
:100CB0002021636484F8402084F8411084F84220A5
:100CC000032070BD4DB1FFF701FC801B854204D3AA
:100CD000226893699B06F5D5B8E70023202284F8A3
:100CE000412084F8403084F84230012070BD00BFBC
:100CF00000E800FE704700BF00284FD010B590F804
:100D00004130044603F0FF02002B42D02368242226
:100D100084F841201968626821F0010122F07062B4
:100D200019601A619A68E16822F4004201299A6008
:100D3000A2682AD042F4044202299A6004BF4FF408
:100D400000625A605968226941F0007141F4004123
:100D500059606169D8680A43A16920F4004042EAF9
:100D60000122E169D860206ADA60014319601968DC
:100D700041F00101196000222023626484F84130AF
:100D8000226384F84220104610BD42F400429A606B
:100D9000D8E780F84020FFF7ADFFB7E701207047A4
:100DA000704700BFB0B10268242310B580F841300D
:100DB000136823F0010304461360FFF7F1FF0023DB
:100DC000636484F8403084F84130236384F842300F
:100DD000184610BD012070472DE9F84F1E4690F8C7
:100DE0004130BDF82C90202B40F084800A9B002BD2
:100DF0007BD0B9F1000F78D003689F6917F40047E2
:100E0000044677D190F84030012B73D0012380F84D
:100E1000403093460D46FFF759FB0A9B636221223F
:100E200084F84120404B402284F842206764A4F8B3
:100E30002A90E362638D3D4A62639BB2FF2B80463A
:100E40005DD8638D4FF000799BB2226823853849C5
:100E500053680B40F1B243EA0143C5F309052B4344
:100E600043F0807343F400535360192142462046F7
:100E7000FFF7DCFE8246002845D1012E0AD0236808
:100E80004FEA1B229A62192142462046FFF7CEFE06
:100E9000002838D123685FFA8BF29A6206E0FFF7E8
:100EA00015FBA0EB0803192B38D823689E6916F0B0
:100EB0008006F4D094F828201E4945EA024545EA08
:100EC00009091B4A5D68154049EA050500225D6075
:100ED00084F84020626B8A4203D017498A4218BFC7
:100EE000F2271A6817431F6001E04FF0010A5046CD
:100EF000BDE8F88F4FF0020A5046BDE8F88FFF2397
:100F00004FF08079A1E7636C636C042B4FF0000312
:100F100084F84030E9D04FF0030AE8E7202384F852
:100F2000413084F84260EFE70000FFFFC11700087E
:100F3000009800FCBD190008591600082DE9F84F6B
:100F40001E4690F84130BDF82C90202B40F0838055
:100F50000A9B002B7AD0B9F1000F77D003689F6904
:100F600017F40047044676D190F84030012B72D038
:100F7000012380F8403093460D46FFF7A7FA0A9BFD
:100F80006362222284F84120404B402284F84220B0
:100F90006764A4F82A90E362638D3D4A62639BB262
:100FA000FF2B80465CD8638D4FF000799BB222689E
:100FB0002385384953680B40F1B243EA0143C5F336
:100FC00009052B4343F40053536019214246204640
:100FD000FFF72CFE8246002846D1012E0AD0236856
:100FE0004FEA1B229A62192142462046FFF71EFE55
:100FF000002839D123685FFA8BF29A6206E0FFF786
:1010000065FAA0EB0803192B39D823689E6916F0FE
:101010004006F4D05A681F490A402A4394F82850E1
:101020001D4942EA054242EA090949F410525A6050
:10103000002284F84020626B8A4203D017498A421A
:1010400018BFF4271A6817431F6001E04FF0010A28
:101050005046BDE8F88F4FF0020A5046BDE8F88FC1
:10106000FF234FF08079A2E7636C636C042B4FF091
:10107000000384F84030E9D04FF0030AE8E720236A
:1010800084F8413084F84260EFE700BF0000FFFFC2
:10109000C1170008009800FCBD1900085916000887
:1010A0000268436B9169126803B11847704700BF2B
:1010B000704700BF704700BF704700BF704700BF58
:1010C000704700BF704700BF704700BF704700BF48
:1010D0000023444A10B580F84230C2624385436C15
:1010E0000B43436490F84130282B044630D090F8ED
:1010F0004130292B2CD090F841302A2B28D003687E
:1011000090F8412090F841201A6822F0FE021A60FF
:1011100090F84120602A1CBF202280F84120002244
:10112000026342631A6812F4804232D01A68A06BDC
:101130002D4922F480421A600023816384F84030F4
:10114000FFF718FB90B3A06BBDE81040836B184706
:1011500094F8412094F84100236802F02802282ADC
:1011600000F028001A6814BF6FF0F6016FF0460116
:10117000282818BF6FF0F6010A401A6028210022C3
:1011800084F8411022631A681848606312F48042A0
:10119000CCD1196811F4004109D194F84130602B89
:1011A00017D084F840102046FFF78EFF10BD196855
:1011B000E06B21F4004119600B4B836384F84020FD
:1011C000FFF7D8FA0028F1D0E06BBDE81040836B40
:1011D0001847202384F8413084F840102046FFF758
:1011E00075FF10BD0000FFFF491B000855130008E4
:1011F00070B5044608222368544D2020D861DA6176
:1012000094F8412094F84120186820F0FE001860FE
:10121000586840F4004058605A682A405A609A69F9
:10122000960744BF00229A629A69D50703D49A6947
:1012300042F001029A611A6850042DD41A6812040F
:101240002AD4628D92B21AB1626C42F004026264D6
:1012500011F0040606D0626A5B6A511C6162137069
:10126000238D73BB0025256384F84250636C65634E
:10127000002B31D1E26A36498A4218D194F84120D4
:1012800084F84030222A4FF0200284F84120204682
:1012900058D0FFF711FF70BD94F84120212A0CBFF0
:1012A000A26BE26B1268526892B26285C9E7202293
:1012B000E16284F8403084F841202046FFF702FFC5
:1012C00070BD628D013A92B26285626C013B42F060
:1012D000040223856264C5E7616C2046FFF7F8FECF
:1012E00094F84130282BD6D1194AE2622023256395
:1012F000656384F8413084F842508EB1636A226895
:10130000591C526A61621A70238D4BB1628D013A89
:1013100092B26285626C013B42F0040223856264F2
:10132000236894F8412094F841201A68102022F094
:10133000FE0200211A60D861204684F84010FFF7B1
:10134000C1FE70BDFFF7BAFE70BD00BF00E800FE31
:101350000000FFFFF8B590F84030012B00F0D78077
:1013600016460123CA0604460D4680F8403024D5AF
:10137000F30622D5438D9BB2002B78D1C36AB3F11B
:10138000007F00F08A80C36AB3F1007F00F085809F
:10139000E36A13F5803F04D094F84130292B00F024
:1013A000DB8023681022DA61AA0602D5B30600F1B9
:1013B000A980002084F84000F8BD68071AD42A07E5
:1013C00001D533075BD4A807EED5B107ECD5638D03
:1013D0009BB2002B00F09D80636A5A1C62622268F7
:1013E0001B789362638D228D013B9BB2013A63852A
:1013F0002285D9E77107E2D5638D9BB263B1636A39
:101400002268591C526A61621A70638D228D013BF9
:10141000013A9BB222856385638D9BB2002BC3D1B9
:10142000E26A12F5803FBFD084F8423094F8412040
:10143000292A78D094F841202A2AB5D1282284F884
:1014400041202222226394F84120216802F02802E0
:10145000282A0A680CBF6FF044076FF0F4073A407F
:101460000A60204684F84030FFF728FE9CE70368B6
:101470001022DA61436C43F00403436494E794F868
:10148000413003F02803282B00F0998023680822BC
:10149000DA61002384F8403086E794F84130282B45
:1014A0007FF476AF6B4AE262002320226907236350
:1014B000636384F8412084F8423011D5636A22685E
:1014C000591C526A61621A70238D4BB1628D013AC8
:1014D00092B26285626C013B42F004022385626431
:1014E000236894F8412094F841201A6822F0FE0203
:1014F0001A601022DA61002384F840302046FFF79A
:10150000E1FD51E729462046FFF772FE51E7022030
:10151000F8BDE36AB3F1807F03D0E36A002B7FF468
:1015200043AF002380E7282284F841202122226350
:1015300094F84120216802F02802282A0A680CBF8A
:101540006FF042076FF0F2073A400A60204684F8D5
:101550004030FFF7B1FD27E723681022DA619A696E
:10156000920744BF00229A629A69D70703D49A6906
:1015700042F001029A61002284F8422094F841105E
:1015800029294ED094F841102A297FF40DAF282143
:1015900084F841102221216394F8411001F02801C0
:1015A000282919680CBF6FF044006FF0F400014067
:1015B0001960204684F84020FFF780FDF4E620689B
:1015C000E368816982698768D0F80CC0120C022B2D
:1015D000C1F3004102F0FE0218D182EAD71313F0E2
:1015E0000603C7F309020FD1A76C0137A764A76CE4
:1015F000022F7FF4D9AE0827A364C76184F8403076
:101600002046FFF75DFDCFE60CF0FE02036823F0F5
:10161000B8030360002384F840302046FFF750FDF4
:10162000C2E6282184F841102121216394F8411059
:1016300001F02801282919680CBF6FF042006FF0F3
:10164000F20001401960204684F84020FFF734FD85
:10165000AAE600BF0000FFFF90F84030012B3AD00F
:10166000012310B5044680F84030C80610D5D306D3
:101670000ED594F84130212B1DD0E36B1B685B68BD
:10168000F3B923681022DA61002084F8400010BD0D
:10169000080707D48806F7D59306F5D52046FFF747
:1016A000A7FDF1E71307F5D5236808220020DA61CA
:1016B00084F8400010BDA36B1B685B68002BE0D072
:1016C00023681022DA61636C002043F0040384F87D
:1016D0004000636410BD0220704700BF03682022F1
:1016E00010B5DA615A68344C22405A600024334AFB
:1016F0000463C262CA06446305D51022DA61426CF3
:1017000042F0040242649A69940744BF00229A623C
:101710009A69D20703D49A6942F001029A6190F85B
:10172000412090F841C002F02802282A0CF0280C31
:101730001A6814BF6FF0F6016FF04601BCF1280F74
:1017400018BF6FF0F6010A401A60436C63B990F855
:101750004120602A08D090F84120212A17D090F823
:101760004120222A05D010BDBDE81040416CFFF792
:10177000AFBC202280F8412090F8422080F8403011
:10178000402A80F8423013D0FFF794FC10BD20228D
:1017900080F8412090F8422080F84030402A80F8BC
:1017A000423002D0FFF784FC10BD28F05BF810BD7A
:1017B00028F064F810BD00BF00E800FE0000FFFF45
:1017C000F8B590F84030012B00F0A680012380F896
:1017D0004030CB0604460D46164619D5D70617D518
:1017E00003681022DA61426C42F0040242649A6992
:1017F000900744BF00229A629A69D10758D5AA0679
:1018000002D5B30600F18380002084F84000F8BDC3
:101810006A070AD4AF0718D5B10716D5636A5A1CF0
:10182000626222681B78936207E07307F2D5636AED
:101830002268591C526A61621A70638D228D013BC5
:10184000013A9BB222856385D9E72A0615D46F0633
:10185000D5D57106D3D5638D9BB2002B52D12268AA
:10186000536813F00073CAD1E16A11F5803F7ED14D
:10187000536843F480435360C1E77306BFD5238D9B
:10188000DBB9638D9BB2C3B121684A68638D9BB29B
:10189000FF2BC2F3090256D94B6847480340134354
:1018A00043F0FF7343F48033FF2222854B60A6E7A9
:1018B0009A6942F001029A61A1E72268536813F025
:1018C00000731FD184F8423094F8411063632129DA
:1018D0004FF0200184F8411020D01221216394F8A8
:1018E0004110106801F0280128290CBF6FF0440155
:1018F0006FF0F40101401160204684F84030FFF79A
:10190000D9FB7CE740212046FFF7E2FB77E7294639
:101910002046FFF7E3FE77E70220F8BD112121639F
:1019200094F84110106801F0280128290CBF6FF0CD
:1019300042016FF0F20101401160204684F840300E
:10194000FFF7B6FB5BE7638DE06A9BB210F5803F63
:101950002385DBB225D0E76ADFF85CE0486800EA5F
:101960000E00384340EA034313434B6047E784F8D3
:10197000423094F84110636321294FF0200184F82C
:101980004110CBD01221216394F8411001F02801BD
:10199000282908BF6FF04400116818BF6FF0F400E9
:1019A000A8E74868044F3840024342EA034343F043
:1019B00000734B6023E700BF009800FC38B590F837
:1019C0004030012B6DD00123CD06044680F8403015
:1019D00024D5D00622D5236839481022DA61616CFB
:1019E000626B41F004018242616458D035498A42F9
:1019F0000CBF6022F42219680A431A609A699107A1
:101A000044BF00229A629A69D20703D49A6942F0CD
:101A100001029A61002084F8400038BD0B0607D40B
:101A20008806F7D59306F5D52046FFF757FEF1E770
:101A30005506F5D52268136823F040031360638DC3
:101A40009BB2002B36D05068618D8BB2FF2BC0F358
:101A5000090028D8618D1FFA81FCC9B209044FF032
:101A6000007E5368184DA4F828C02B40034343EA76
:101A70000E030B435360638DA3EB0C039BB2638592
:101A800094F84130222B13684FF000000CBF43F450
:101A9000004343F48043136084F84000BDE76022B4
:101AA000A9E7022038BD4FF47F014FF0FF0C4FF043
:101AB000807ED6E740212046FFF70AFBAAE700BF59
:101AC000BD19000859160008009800FC03689A69BF
:101AD000196810B4D4052ED50C061ED5416C41F002
:101AE000010141644FF480745105DC6128D5416CDB
:101AF0004FF4806441F0080192054164DC6106D531
:101B0000426C4FF4007142F002024264D961436CAE
:101B100013F00B0F0BD110BC70475405F7D494058C
:101B2000F5D50906ECD4436C13F00B0FF3D0416CE0
:101B300010BCFFF7CDBA5405F1D50906D7D4E6E7B6
:101B40009205DDD4E3E700BF806A01684B6810B5F9
:101B500043F40043846B4B60C36B0022A2639A631F
:101B600090F84130602B02D0FFF7AEFA10BD202371
:101B700080F84130FFF7AAFA10BD00BF024B186889
:101B800000F4C060704700BF0070004030B5204DC9
:101B9000AB6DDB0083B004461CD5FFF7EFFFB0F55B
:101BA000007F29D0802C13D82FD0A4F17004B4FA70
:101BB00084F4640917490B6823F0070323430B607F
:101BC000086800F00700001B18BF012003B030BDFB
:101BD0000324EFE7AB6D43F08053AB65AB6D03F0CF
:101BE00080530193019BFFF7C9FFAB6DB0F5007FF8
:101BF00023F08053AB65D5D1802C04D9A02C8CBFA9
:101C000002240124D6E70024D4E70224D2E700BF4F
:101C10000010024000200240524B9A6812F00C0F54
:101C200010B44FD09A6802F00C020C2A45D04D4AED
:101C3000936803F00C03042B00F08180936803F099
:101C40000C03082B78D0474A936803F00C0300205C
:101C50000C2B044653D1D068D368702100F00300E8
:101C600091FAA1F1B1FA81F103F07003CB4002289F
:101C700003F1010366D003284FD1D0684FF4FE4230
:101C800092FAA2F2B2FA82F200F4FE40D040364A52
:101C9000B2FBF3F303FB00F0324B4FF0C062DB68A2
:101CA00092FAA2F2B2FA82F203F0C063D340013397
:101CB0005B0010BCB0FBF3F07047DB6803F003037C
:101CC000012BB4D1274B1A6812071AD51B68F022D2
:101CD00092FAA2F2B2FA82F203F0F003D340214A60
:101CE0002249926851F8234012F00C0F0CBF204695
:101CF00000201C4A936803F00C030C2BABD010BCE3
:101D00007047D3F894304FF4706292FAA2F2B2FAAC
:101D100082F203F47063D340E1E7D0684FF4FE42EF
:101D200092FAA2F2B2FA82F200F4FE40D040B4FB82
:101D3000F3F303FB00F0AFE70B480024D9E70C48AE
:101D40000024D6E7D0684FF4FE4292FAA2F2B2FA2B
:101D500082F200F4FE40D040054AB2FBF3F303FBED
:101D600000F099E70010024000127A00AC18030856
:101D70000024F40070B503680446D80682B047D545
:101D8000A14B9A6812F00C0F40F033811B68990741
:101D900003D5A369002B00F09B819B4B206A1A6836
:101DA000120756BFD3F894301B681B0903F0F003E9
:101DB000984240F27781FFF7E9FE002840F08881E1
:101DC000914B1A6842F008021A601A68216A22F0E0
:101DD000F0020A431A605A68E16922F47F4242EA3B
:101DE00001225A60FFF718FF874A03469268F021E4
:101DF00091FAA1F1B1FA81F102F0F002CA40834DEB
:101E00008349AA5C0F20D3400B6024F023FD236894
:101E1000D90730D57C498A6802F00C02082A00F004
:101E200060818A6802F00C020C2A00F05481636819
:101E3000B3F5803F00F05F81B3F5A02F00F0D181B2
:101E4000714A116821F480311160116821F48021F8
:101E50001160002B40F05481FEF738FB054605E089
:101E6000FEF734FB401B642800F28881664B1B6838
:101E70009803F5D42368990731D563498A6802F03D
:101E80000C02042A00F050818A6802F00C020C2A2D
:101E900000F04481E3685C4A002B00F07481136811
:101EA00043F480731360FEF711FB054605E0FEF76F
:101EB0000DFB401B022800F26181534B1A68560546
:101EC000F5D558684FF0F85191FAA1F12269B1FAAD
:101ED00081F18A4020F0F8510A435A6023681907BB
:101EE0001AD56369484A002B00F0B380D2F89430C9
:101EF00043F00103C2F89430FEF7E8FA054605E026
:101F0000FEF7E4FA401B022800F238813E4BD3F87A
:101F100094309A07F4D523685E073ED53A4B9A6D04
:101F2000D50000F12E819A6D42F080529A659B6D2A
:101F300003F080530193019B0125364B1A68D005AD
:101F400040F10B81A368012B00F03081052B00F0DC
:101F500064812D4AD2F8901021F00101C2F890104E
:101F6000D2F8901021F00401C2F89010002B40F03C
:101F70002481FEF7ABFA064607E0FEF7A7FA41F226
:101F80008833801B984200F2F9801F4BD3F89030C1
:101F90009B07F2D4002D40F03A81A26A32B31A4B6B
:101FA000996801F00C010C2900F09280022A1A684D
:101FB00022F080721A6000F03E811A68110140F12F
:101FC0001D81114AD36823F0887323F48033D360D2
:101FD000FEF77CFA044605E0FEF778FA001B0228BB
:101FE00000F2CC80084B1B689B01F5D4002002B0A6
:101FF00070BDA269002A42D01A6842F001021A603C
:10200000FEF764FA05460DE000100240941803083C
:102010000C00002000700040FEF758FA401B022818
:1020200000F2AC80A14B1A689607F5D51A6842F009
:1020300008021A601A68216A22F0F0020A431A6044
:102040005A68E16922F47F4242EA01225A60236819
:10205000DEE6D2F8943023F00103C2F89430FEF7A4
:1020600035FA054605E0FEF731FA401B022800F27A
:1020700085808E4BD3F894309B07F4D44BE71A68D5
:1020800022F001021A60FEF721FA054604E0FEF78D
:102090001DFA401B022871D8844B1B689807F6D4A0
:1020A0002368B5E6814B1A6842F008021A601A6884
:1020B00022F0F00202431A605A68E16922F47F427A
:1020C00042EA01225A60FFF761FD00283FF48AAE20
:1020D000012002B070BDCA6802F00302032A7FF437
:1020E000A6AE724A126892037FF5C5AE6268002AF6
:1020F0007FF4C1AEECE76D4A136843F4803313609C
:10210000FEF7E4F9054604E0FEF7E0F9401B642819
:1021100034D8664B1B689E03F6D5ABE6CA6802F05E
:102120000302022A7FF4B6AE604A1268520502D555
:10213000E268002ACCD05D4D4FF0F852686892FA00
:10214000A2F2B2FA82F1226920F0F8508A400243EA
:1021500019076A607FF5E0AEC3E61A6842F4807240
:102160001A60FEF7B3F90646514B1B68D9053FF5D7
:10217000E9AEFEF7ABF9801B0228F5D9032002B0C7
:1021800070BD0025D9E6136823F480731360FEF751
:102190009DF9054604E0FEF799F9401B0228EDD8A9
:1021A000424B1B685805F6D4236898E63F4AD2F89C
:1021B000903043F00103C2F89030FEF787F90646ED
:1021C00006E0FEF783F941F28833801B9842D5D8A8
:1021D000364BD3F890309A07F3D5002D3FF4DDAE9F
:1021E00015E003F18043A3F53C331A6842F48022E2
:1021F0001A601A6842F480321A6081E71A68920005
:102200003FF5DFAEDA6822F00302DA60D9E6274A4A
:10221000936D23F080539365BFE6244BD3F8902051
:1022200042F00402C3F89020D3F8902042F001025B
:10223000C3F89020C1E7FEF749F9054604E0FEF730
:1022400045F9401B022899D8184B1A689601F6D414
:10225000D4E90B21606B42EA0022D4E90E50013927
:1022600042EA0112216C40082C0942EA444201383A
:10227000490842EA4052013942EA4162DA601A688A
:1022800042F080721A60DA6842F08072DA60FEF71B
:102290001DF9044605E0FEF719F9001B02283FF678
:1022A0006DAF024B1B689801F5D59FE60010024008
:1022B000007000405E4A136803F007038B4270B55C
:1022C0000C4605460BD2136823F007030B4313603B
:1022D000136803F007038B4201D0012070BD2B6807
:1022E000990706D55349A8688A6822F0F00202438C
:1022F0008A60DA0729D56A684E4B022A1B6800F00B
:102300008D80032A00F08680002A40F08D80980797
:10231000E3D548498B6823F0030313438B60FEF732
:10232000D5F86B68022B064651D0032B5DD03BB12C
:1023300069E0FEF7CBF841F28833801B984271D8F0
:102340003C4B9B6813F00C0FF3D1394A136803F030
:102350000703A34209D9136823F00703234313603B
:10236000136803F00703A342B7D12B685A0706D5B9
:102370003049E8688A6822F4E06202438A601B07F9
:1023800007D52C4A2969936823F4605343EAC103B3
:102390009360FFF741FC274A03469268F02191FAC7
:1023A000A1F1B1FA81F102F0F0022348CA402349B9
:1023B000825C0F20D3400B6024F04CFA002070BDEB
:1023C000FEF784F841F28832831B93422AD8194BD6
:1023D0009B6803F00C03082BF2D1B6E7FEF776F802
:1023E00041F28833801B98421CD8124B9B6803F043
:1023F0000C030C2BF2D1A8E7FEF768F841F2883302
:10240000801B98420ED80B4B9B6803F00C03042BE7
:10241000F2D19AE79E013FF57CAF5EE79B033FF563
:1024200078AF5AE7032070BD59057FF556AF70E7C6
:102430000020024000100240941803080C00002005
:10244000084B4FF4E0629B6892FAA2F2B2FA82F271
:1024500003F4E06304490548D3400068CB5CD840EE
:10246000704700BF00100240A41803080C000020B1
:10247000084B4FF460529B6892FAA2F2B2FA82F2D1
:1024800003F4605304490548D3400068CB5CD8404E
:10249000704700BF00100240A41803080C00002081
:1024A00038B504460D4604E0FEF710F8401B6328DB
:1024B00041D823689A6812F4C05FF5D1986810F08B
:1024C000800000D138BDFEF701F8401B6328236867
:1024D000F4D961685A68B1F5827F22F0E0025A604F
:1024E00019D0A26AB2F5005F0BD0012384F85D30E9
:1024F000236E002243F0200384F85C20236603202F
:1025000038BD1A684DF6FF710A401A601A6842F425
:1025100000521A60E9E7A268B2F5004F02D0B2F5A6
:10252000806FDED11A6822F040021A60A26AB2F50A
:10253000005FDAD1E5E72368CBE700BF30B5436839
:10254000B3F5827F83B004460D4632D023689A6883
:10255000120606D46268B2F5827F37D0002003B03D
:1025600030BDFDF7B3FF401B6328EFD923686168D6
:102570005A68B1F5827F22F0E0025A603FD0A26A29
:10258000B2F5005F08D11A684DF6FF710A401A6073
:102590001A6842F400521A60012384F85D30236EF9
:1025A000002243F02003032084F85C20236603B05C
:1025B00030BD8368B3F5004F02D0B3F5806FC5D14D
:1025C00023681A6822F040021A60C0E7A268B2F5D8
:1025D000004F0FD0B2F5806FC0D10BE01B7BDBB298
:1025E0008DF807309DF80730FDF770FF401B63281A
:1025F0002368BCD89A6812F4C06FEFD1AEE7A26826
:10260000B2F5004F02D0B2F5806FB8D11A6822F04F
:1026100040021A60B3E700BF704700BF002866D0D1
:10262000F8B590F85D30044603F0FF02002B50D05F
:102630002268E568022384F85D301368B5F5E06F21
:1026400023F04003136038D9B5F5706F51D1266B74
:10265000A16A002E42D1022626634FF0000ED4E973
:1026600001373B432769206A3B4367693B43E7697E
:102670003B43A769034307F4007C43EA0C030B4385
:10268000022E136003D1136843F400631360636A7E
:102690002B43656B3F0C07F004072B433B4343EA96
:1026A0000E03B1F5005F536004BFE36A13610020BD
:1026B0000123206684F85D30F8BD12D0266B00211E
:1026C000A1621EB90123314623631E464FF4805E8A
:1026D000C5E780F85C20FFF79FFFA9E74FF0000EE9
:1026E000BDE7266B76B1A16A4FF4805EB7E70120A3
:1026F0007047216B0023A3620029ACD00E469E4692
:102700001946ACE7A66ADDE7704700BF90B10268E2
:10271000022310B580F85D30136823F040030446AF
:102720001360FFF7F1FF0020206684F85C0084F856
:102730005D0010BD01207047034690F85C00012841
:1027400054D0012083F85C00002938D0002A36D00C
:1027500093F85D00012831D110B400209963032162
:1027600083F85D109A871866D968DA87204C214A69
:10277000A3F84600B1F5E06F88BF22469968186457
:10278000C3E913021A68A3F84400B1F5004F02BF71
:10279000116841F480411160996AB1F5005F1BD066
:1027A000516841F0A0015160106810F040000AD05B
:1027B000002283F85C20002010BC70470220002219
:1027C00083F85C207047116841F0400111600022DD
:1027D00083F85C2010BC704711684DF6FF70014013
:1027E0001160116841F400511160D9E7022070476F
:1027F000A9300008812B0008844690F85C0001286D
:1028000069D000B501208CF85C009CF85D000128BF
:102810005FFA80FE11D0DCF80400B0F5827F05D0AD
:10282000022000238CF85C305DF804FBDCF8080023
:102830000028F5D1BEF1040FF2D1002945D0002ABD
:1028400043D0002B41D09CF85D00ACF83C3004280C
:102850001CBF05208CF85D000020CCF86000DCF87F
:102860000C00ACF83E30B0F5E06FACF84430ACF89A
:102870004630CCF83810DCF82830CCF840202CD981
:102880002849294AB3F5005FCCE9131246D000224B
:10289000DCF80030CCF84820B0F5E06F04D8BCF884
:1028A000462092B2012A34D95A6822F480525A60E2
:1028B0005A6842F0E0025A60186810F0400026D1D1
:1028C0001A6842F040021A60ABE700238CF85C30D3
:1028D00001205DF804FB022070471449144AB3F547
:1028E000005FCCE91312D2D1DCF83030022B18BFD4
:1028F0000123CCF84830DCF800301A684DF6FF713F
:102900000A401A601A6842F400521A60C4E70020B4
:1029100087E75A6842F480525A60C9E70123CCF82D
:102920004830E8E7C12E00086D2E0008A92D0008E8
:102930003D2D000830B4856884460C461DB94368B7
:10294000B3F5827F5AD09CF85C30012B5ED0012316
:102950008CF85C309CF85D30012BD8B205D0022099
:1029600000238CF85C3030BC7047002CF8D0002A73
:10297000F6D004238CF85D30DCF80C10ACF8442061
:102980000023CCF86030CCF83830ACF84620ACF8F6
:102990003C30ACF83E30CCF85030DCF80030CCF8AD
:1029A0004040B1F5E06F5A6821D842F480525A6035
:1029B000244ACCF84C20B5F5004F03D11A6822F414
:1029C00080421A60DCF82820B2F5005F23D0002294
:1029D000CCF848205A6842F060025A60186810F03B
:1029E000400016D11A6842F040021A60B8E722F49B
:1029F00080525A60144ACCF84C20DCE7042480F85A
:102A00005D40134630BC0A46FFF7F6BE022030BCDC
:102A100070470020A4E70122B1F5E06FCCF8482010
:102A200005D8DCF83020022A08BFCCF848201A6804
:102A30004DF6FF710A401A601A6842F400521A609B
:102A4000C8E700BF052C00082D32000890F85C3064
:102A5000012B6AD010B590F85D300446012B4FF081
:102A6000010084F85C00D8B250D100294FD0002A70
:102A70004DD00023A068A2874FF0030C84F85DC0FE
:102A80002366E2872268A4F84630B0F5004FC4E917
:102A900013332364A4F8443008BF1368A16304BF50
:102AA00043F480431360A36AB3F5005F33D0606DD5
:102AB0002A4B03632A4BC3622A4B4363002383637D
:102AC000536823F480435360E368B3F5E06F03D8A1
:102AD0008369B3F5806F2AD0E38F0C329BB2FDF788
:102AE000E3FD23681A68520603D41A6842F04002D4
:102AF0001A605A6842F020025A605A6842F0020294
:102B00005A60002384F85C30002010BD02200023AE
:102B100084F85C3010BD13684DF6FF7003401360FD
:102B2000136843F400531360C1E702207047E38F3A
:102B300013F0010F536807D123F480435360E38FF0
:102B4000C3F34E03E387C7E743F480435360E38F47
:102B5000C3F34E030133E387BEE700BF712B0008C8
:102B6000352F0008112F0008704700BF704700BFC5
:102B700008B5806AFFF7FAFF08BD00BF704700BFC5
:102B8000836B0268591C81631B781373C38F013BED
:102B90009BB2C387C38F9BB24BBB10B5836AB3F59F
:102BA000005F82B0044627D0FDF790FC226853688E
:102BB00023F0A003014653602046FFF771FC18B1D3
:102BC000236E43F020032366A36833B92268019380
:102BD000D368019393680193019B012384F85D30CE
:102BE000236E204623B926F0B9FE02B010BD70470F
:102BF000FFF7C4FF02B010BD0268136843F48053AE
:102C00001360D1E710B5036C0268591C0164127B94
:102C10001A70B0F84630013B9BB2A0F84630B0F8CD
:102C200046309BB2012B044620D0B0F846309BB210
:102C3000DBB9836AB3F5005F34D02268536823F0B0
:102C400060035360FDF742FC01462046FFF776FC27
:102C5000B0B90122236884F85D209A68D20624D492
:102C6000236E20468BB926F08FFE10BD836AB3F524
:102C7000005F0DD0B0F846309BB2002BDDD010BD08
:102C8000236E43F020032366E3E7FFF777FF10BDD1
:102C90000268136843F480531360B0F846309BB267
:102CA000002BE2D1064BE36410BD226E4FF6EF71AC
:102CB00042F00202226620469960FFF75FFF10BDD6
:102CC000A931000810B50446FDF700FC22685368DE
:102CD00023F02003014653602046FFF7E1FB18B1C3
:102CE000236E43F02003236623689A68D20614D427
:102CF000236E5BB994F85D30042B4FF0010384F828
:102D00005D30204617D0FFF72FFF10BD012384F858
:102D10005D302046FFF732FF10BD012284F85D20B0
:102D2000226E4FF6EF7142F0020222662046996051
:102D3000FFF724FF10BD26F027FE10BDC38F9BB206
:102D4000012B1AD9826B036832F8021BD960C38F3A
:102D50008263023B9BB2C387C38F9BB263B9836A12
:102D6000B3F5005F16D00268536823F08003536008
:102D7000B0F846309BB25BB17047836B0268591C58
:102D800081631B781373C38F013B9BB2C387E3E757
:102D9000FFF798BF03681A6842F480521A605A68B5
:102DA00022F080025A607047B0F846309BB2012B87
:102DB00026D90168026CCB6822F8023BB0F8463095
:102DC0000264023B9BB2A0F84630B0F846309BB29A
:102DD000012B10D0B0F846309BB25BB9836A026811
:102DE000B3F5005F1BD0536823F060035360C38FBB
:102DF0009BB293B170474B6843F480534B60E9E753
:102E0000036C0268591C0164127B1A70B0F84630DA
:102E1000013B9BB2A0F84630DCE7FFF753BF536895
:102E2000024943F480535360C1647047312E000857
:102E300010B483B0002204688DF80720217B826CD7
:102E4000C9B28DF80710013A9DF80710826432B9B3
:102E5000626822F060026260C38F9BB213B103B05C
:102E600010BC704703B010BCFFF72CBF816B10B4CF
:102E7000046831F8022BE260C28F8163013A92B29A
:102E8000C287C28F92B25AB9826AB2F5005F0CD083
:102E9000626822F080026260B0F846309BB20BB1EB
:102EA00010BC704710BCFFF70DBF236843F480537C
:102EB0002360636823F08003636010BC704700BF29
:102EC00010B40468016CE26821F8022BB0F84620C7
:102ED0000164013A92B2A0F84620B0F8462092B2BE
:102EE00052B9826AB2F5005F0BD0626822F04002EC
:102EF0006260C38F9BB20BB110BC704710BCFFF770
:102F0000E1BE024A10BCC264704700BFE93200084B
:102F1000806A026808B5536823F003035360036EA8
:102F2000012143F01003036680F85D10FFF726FED1
:102F300008BD00BF30B5054683B0846AFDF7C6FA08
:102F40002B681B689B0621D423685A6822F0200254
:102F50005A605A6822F0020201465A602046FFF782
:102F60009FFA18B1236E43F020032366A36833B998
:102F700022680193D368019393680193019B012315
:102F80000022E28784F85D30236E23B9204626F0C4
:102F9000E5FC03B030BD2046FFF7F0FD03B030BDC7
:102FA000026810B55168936803F0410CBCF1010F41
:102FB00084B004465AD0980701D508065ED413F4AD
:102FC000B07F51D088064FD558060ED594F85D00D5
:102FD000032842D0206E40F00400206600200090BC
:102FE000D068009090680090009898060CD5206EEC
:102FF00040F0010020660020029090680290106866
:1030000020F0400010600298D80508D5236E0020FB
:1030100043F008032366039093680393039B236E96
:1030200013B3536823F0E003536001208B0784F847
:103030005D0029D05368A06D23F00303536018B1DD
:10304000134B8363FDF796FB606D68B1104B836390
:1030500004B0BDE81040FDF78DBB00230193D36899
:10306000019393680193019B04B010BD11F0400FD0
:10307000A1D0C36C04B0BDE810401847236D2046B2
:1030800004B0BDE8104018472046FFF777FDEBE796
:103090009530000808B5806A0023A0F84630C38741
:1030A000FFF76CFD08BD00BF826B016832F8023B80
:1030B000CB60C38F8263013B9BB2C387C38F9BB23C
:1030C0004BBB10B5836AB3F5005F82B0044627D0CE
:1030D000FDF7FCF92268536823F0A0030146536012
:1030E0002046FFF7DDF918B1236E43F02003236675
:1030F000A36833B922680193D3680193936801935D
:10310000019B012384F85D30236E204623B926F00D
:1031100025FC02B010BD7047FFF730FD02B010BDB6
:103120000B6843F480530B60D2E700BF10B582B048
:1031300003680022ADF80620DA6892B2ADF80620E6
:10314000BDF806205A6822F060025A605A6822F0E0
:1031500060025A600446FDF7B9F901462046FFF7C0
:10316000EDF918B1236E43F0200323660122236892
:1031700084F85D209A68D2060AD4236E20461BB1DB
:10318000FFF7FCFC02B010BD26F0FEFB02B010BD44
:10319000226E4FF6EF7142F00202226620469960DD
:1031A000FFF7ECFC02B010BD10B582B0002301683F
:1031B0008DF807300A7B836CD2B28DF80720013B73
:1031C0009DF8072083640BB102B010BD4B6823F05B
:1031D00060034B600446FDF779F901462046FFF78E
:1031E000ADF968B90122236884F85D209A68D20697
:1031F0000FD4236E204643B926F0C6FB02B010BDA3
:10320000236E43F020032366ECE7FFF7B7FC02B020
:1032100010BD226E4FF6EF7142F002022266204688
:103220009960FFF7ABFC02B010BD00BF0168026CF3
:10323000CB6810B522F8023BB0F846300264013B7F
:103240009BB2A0F84630B0F846309BB2012B044642
:103250001FD0B0F846309BB2D3B9836AB3F5005F94
:1032600032D04B6823F060034B60FDF72FF9014625
:103270002046FFF763F9B0B90122236884F85D2086
:103280009A68D20623D4236E20468BB926F07CFBA5
:1032900010BD836AB3F5005F0DD0B0F846309BB225
:1032A000002BDED010BD236E43F020032366E3E73E
:1032B000FFF764FC10BD0B6843F480530B60B0F85B
:1032C00046309BB2002BE3D1064BE36410BD226E67
:1032D0004FF6EF7142F00202226620469960FFF736
:1032E0004DFC10BD2D31000810B582B003680022DE
:1032F000ADF80620DA6892B2ADF80620BDF80620D7
:103300005A68044622F040025A60FDF7DFF822684E
:10331000536823F02003014653602046FFF7C0F8AE
:1033200018B1236E43F02003236623689A68D206FF
:1033300016D4236E63B994F85D30042B4FF001036B
:1033400084F85D3020461AD0FFF70EFC02B010BDA5
:10335000012384F85D302046FFF710FC02B010BD59
:10336000012284F85D20226E4FF6EF7142F00202D6
:10337000226620469960FFF701FC02B010BD26F0DE
:1033800003FB02B010BD00BF0368986810F4C06072
:103390001BD082B0DA680192019A986810F4C0607C
:1033A00011D0DA680192019A986810F4C0600AD0CE
:1033B000DA680192019A986810F4C06003D0DB6863
:1033C0000193019B032002B070477047036A23F00A
:1033D00001030362036A30B4446882690D6822F411
:1033E000803222F073022A438D6823F002032B43BC
:1033F000134DA8420FD005F50065A8420BD005F586
:103400004065A84207D005F58065A84203D005F5C0
:103410008065A8420DD1CD6823F008032B43D1E984
:1034200005C524F440744CEA050C23F004034CEA6F
:10343000040449684460826130BC416303627047A0
:10344000002C0140036A23F480730362036A30B4E2
:103450004468C2690D6822F4803222F073022A4364
:103460008D6823F4007343EA0523154DA84210D05C
:1034700005F50065A8420CD005F54065A8420FD0BF
:1034800005F58065A8420BD005F58065A8420FD1EF
:1034900006E0CD6823F4006343EA052323F4806348
:1034A000D1E905C524F440544CEA050C44EA0C1457
:1034B00049684460C26130BCC1630362704700BFA9
:1034C000002C0140704700BF00285ED010B590F876
:1034D0003930044603F0FF02002B4FD023682C49FB
:1034E000022284F839208B421A6837D0B3F1804F1A
:1034F00021D0A1F594318B421DD001F580618B4222
:1035000019D001F580618B4215D001F594318B42C1
:1035100024D001F540618B4235D001F580618B42AA
:1035200031D001F580618B422DD0E06861681A606E
:10353000D86299620CE0A168206922F070020A4307
:1035400022F440720243E1681A606268D9629A62AA
:1035500001225A6184F83920002010BDA068216939
:1035600022F07002024322F440720A431A60E268B9
:10357000DA6262689A6262691A63E9E780F8382061
:10358000FFF7A0FFAAE72169EDE70120704700BF20
:10359000002C014003680122186A02FA01F120EAB6
:1035A00001001862186A0F4A0143934219620FD052
:1035B00002F5006293420BD002F54062934207D0BD
:1035C00002F58062934203D002F58062934203D1F8
:1035D0005A6C42F400425A641A6842F00102002018
:1035E0001A607047002C014003684FF0010C1A6A02
:1035F0000CFA01FC22EA0C021A621B4A196A1962CF
:10360000934222D002F5006293421ED002F540623E
:1036100093421AD002F58062934216D002F580627E
:10362000934212D0196A41F21112114208D1196A5B
:1036300040F24442114203D11A6822F001021A609A
:10364000012380F8393000207047196A41F21112C5
:103650001142E7D1196A40F244421142E2D15A6C58
:1036600022F400425A64DDE7002C0140036A23F093
:1036700010030362036A30B4446882690D6822F063
:10368000807222F4E64242EA05228D6823F020038C
:1036900043EA0513144DA84210D005F50065A84271
:1036A0000CD005F54065A8420FD005F58065A8420D
:1036B0000BD005F58065A8420FD106E0CD6823F058
:1036C000800343EA051323F04003D1E905C524F440
:1036D00040644CEA050C44EA8C0449684460826109
:1036E00030BC816303627047002C014090F8383091
:1036F000012B00F0138170B502230D460121044611
:1037000080F8381080F83930142A4DD8DFE812F0EC
:1037100092004C004C004C00A4004C004C004C00AB
:10372000B7004C004C004C0015004C004C004C0005
:10373000C9004C004C004C00530003682E681A6A04
:1037400022F480521A621A6A5868D96921F080718D
:1037500021F4E64141EA0621AE6822F4005242EA31
:103760000632754EB34208D006F50066B34204D067
:1037700006F54066B34240F0D3806E6920F4804085
:1037800040EA86105860D961696819641A62D9697B
:10379000286941F40061D961D96921F48061D96156
:1037A000DA6942EA0022DA610020012384F8393024
:1037B00084F8380070BD03682E681A6A22F48012FB
:1037C0001A621A6A5868596D21F0807121F4E0413B
:1037D00041EA0621AE6822F4001242EA0652564E31
:1037E000B3420FD006F50066B3420BD006F5406633
:1037F000B34207D006F58066B34203D006F5806673
:10380000B34204D16E6920F4802040EA86205860DB
:1038100059656968D9651A62596D286941F4006172
:103820005965596D21F4806159655A6D42EA00224B
:103830005A65B9E700682946FFF7C8FD236828697B
:10384000996941F008019961996921F00401996130
:103850009A6902439A61A7E700682946FFF706FFC5
:1038600023682869996941F400619961996921F493
:10387000806199619A6942EA00229A6194E700683E
:103880002946FFF7DFFD23682869D96941F008015F
:10389000D961D96921F00401D961DA690243DA6199
:1038A00082E703682E681A6A22F480321A621A6A62
:1038B0005868596D21F4803121F070013143AE68B0
:1038C00022F4003242EA06421B4EB3420FD006F504
:1038D0000066B3420BD006F54066B34207D006F54A
:1038E0008066B34203D006F58066B34204D16E69A8
:1038F00020F4803040EA062058605965696899656F
:103900001A62596D286941F008015965596D21F015
:10391000040159655A6D02435A6545E70220704714
:1039200006F58066B3423FF428AF06F58066B342E1
:103930007FF428AF21E700BF002C01400368042278
:10394000186A02FA01F120EA010018621A6A1143AA
:1039500019625A6C42F400425A641A6842F0010239
:1039600000201A60704700BF036804201A6A88406C
:1039700022EA00021A621A6A1A62196A41F21112E4
:10398000114204D1196A40F2444211420FD0196A1F
:1039900041F21112114208D1196A40F24442114217
:1039A00003D11A6822F001021A60002070475A6C95
:1039B00022F400425A64EAE7704700BF704700BF34
:1039C000C0B138B52422036880F869201A68002540
:1039D000044622F001021A601D605D609D60FFF7E1
:1039E000EDFFE56684F8685084F8695084F86A5001
:1039F000284638BD012070472DE9F041044690F873
:103A0000690020286CD10D46002940D09046002A3C
:103A10003DD01F4694F86830012B61D0012384F813
:103A200068300023E366212384F86930FCF74EFDFB
:103A3000A4F85280B4F85230A4F850809BB20646E5
:103A4000002B5CD02368B4F85220013A92B2A4F85B
:103A50005220781C1ED1DA691106FCD5A268B2F595
:103A6000805F34D015F8012B1A85B4F8522092B239
:103A7000002AE8D1781C36D1DA695106FCD500203D
:103A8000202384F8693084F86800BDE8F0810120C3
:103A9000BDE8F081DA691206E0D42FB1FCF716FD1B
:103AA000801B87422368D4D21A6822F4D0721A602D
:103AB0009A682021002522F001029A6084F869109A
:103AC00084F8685084F86A100320BDE8F081226908
:103AD000002AC7D135F8022BC2F308021A85C4E7C1
:103AE0000220BDE8F081DA695206C8D4002FDBD08D
:103AF000FCF7ECFC831B9F422368BBD2D4E723680E
:103B0000B8E700BFF8B5044690F8690020282CD12A
:103B100049B342B394F86800012826D00120A4F8E4
:103B2000522084F86800A4F85020206E104E114FE7
:103B3000E1641346226800254FF0210CE566283227
:103B400084F869C0C0E90C56C7628563FCF7ACFD18
:103B5000236840221A6284F868509A6842F0800212
:103B600028469A60F8BD0120F8BD0220F8BD00BFCC
:103B7000F53C00087D3C000890F86A30202B35D1D8
:103B8000002931D0002A2FD070B590F86830012B71
:103B900004462DD00123002580F868302223C56615
:103BA000416580F86A30A0F85820406E114E856358
:103BB00013460A462168C6620F4E06630F4E4663DF
:103BC0002431FCF771FD236884F868501A6842F4C8
:103BD00080721A609A6842F001029A609A6842F014
:103BE000400228469A6070BD01207047022070474D
:103BF000022070BDAD3C0008E53C0008F53C000823
:103C000010B590F86930212B044605D094F86A303D
:103C1000222B19D0002010BD03689A681106F5D533
:103C20009A68006E22F080029A6010B1FCF782FD63
:103C300023681A68202122F0C0021A6084F86910F3
:103C400094F86A30222BE5D123689A685206E1D5B0
:103C50009A68606E22F040029A6010B1FCF76AFD2B
:103C600023681A6822F490721A609A68202122F060
:103C700001029A6084F86A10002010BD08B503683C
:103C8000806A1B6813F020030CD10268A0F8523040
:103C90009368202123F08003936080F8691006F078
:103CA000B1F808BD06F0AEF808BD00BF08B503685E
:103CB000806A1B6813F0200311D10268A0F85A3003
:103CC000136823F480731360936823F001039360F7
:103CD0009368202123F04003936080F86A1006F077
:103CE000A7F808BD08B5806A06F0B8F808BD00BF9F
:103CF000704700BF08B5806A90F86930212B0AD060
:103D000090F86A30222B18D0C36E43F01003C366BC
:103D1000FFF7EEFF08BD03689A681106F0D5002290
:103D2000A0F852201A68202122F0C0021A6080F800
:103D3000691090F86A30222BE6D103689A6852061F
:103D4000E2D50022A0F85A201A6822F490721A6074
:103D50009A68202122F001029A6080F86A10D3E765
:103D600038B50446026883680069616915680343D1
:103D70000B43E069A849034329400B431360536890
:103D8000E16823F440530B43A44953608A42A3697A
:103D9000916859D0256A21F430612B430B43A04927
:103DA00093608A4215D09F4B9A422BD09E4B9A42E9
:103DB00000F0C9809D4B9A4200F082809C4B9A4251
:103DC00000F0D180B0F5004F00F097800125284623
:103DD00038BD984BD3F8883003F00303013B022B26
:103DE00066D9B0F5004F00F0FC80FEF741FBD4E946
:103DF000001200EB5203B3FBF2F39BB2CB60002541
:103E0000284638BD03F5E6338B49D3F8883003F0F4
:103E10000C03CB5CB0F5004F66D0082BD6D801A1BF
:103E200051F823F0413F0008EB3D0008293F00080E
:103E3000CD3D0008E33E0008CD3D0008CD3D000823
:103E4000CD3D0008113F000821F4306179480B4353
:103E50009360D0F8885005F44065B5F5006F00F028
:103E6000958009D83DB3B5F5806FAFD1FDF7D4FE8D
:103E700004250028C3D005E0B5F5406FA6D108257C
:103E80004FF40040626802EB420383429ED8B0EBDD
:103E9000023F9BD8082D00F29080DFE815F0AE00BD
:103EA0008E00ED008E00DE008E008E008E00D500AC
:103EB0006249CB5CAEE7FEF7C3FA00289FD0E1E78A
:103EC00003F5E233D3F8883003F0C003802B28D009
:103ED00046D8002B5DD0402B7FF474AFB0F5004F77
:103EE0007CD0FDF799FE82E7082B06D8DFE803F0C7
:103EF00054797C05760505056F0000230125D36004
:103F0000284638BD302B7FF45DAFB0F5004F5ED052
:103F100061684B0803F500430025B3FBF1F39BB246
:103F2000EDE7B0F5004F5FD061684B0803F574030F
:103F300003F51053B3FBF1F39BB20025D36046E7C2
:103F4000FEF77EFA53E703F5E433D3F8883003F045
:103F50003003202BE5D0D5D8DBB1102BBED031E714
:103F6000C02BD2D02EE703F5E033D3F8883003F42A
:103F70004073B3F5007FD4D004D853B1B3F5807F3C
:103F8000ACD01FE7B3F5407FBFD01BE72C4802251C
:103F900078E7B0F5004FD3D1FEF752FAD4E900210B
:103FA0004B0803EB4003B3FBF1F1C1F3420321F0F3
:103FB0000F010B439BB20025A1E70125214BA0F582
:103FC00040729A423FF602AF2368D860FFE663680A
:103FD000590801F58031B1FBF3F1E6E7FDF71CFE6E
:103FE000DCE7FEF745FAD9E761684B0803F1F473A3
:103FF00003F59043B3FBF1F1D7E7FEF721FA6268CE
:10400000002384464FF4807E50081946ECFB0E01D5
:104010002AF074FDD2E700BFF369FFEF0080004093
:10402000003801400044004000480040004C00407F
:104030000050004000100240D4160308D0160308B8
:104040000024F400FFFC0F005008002300F50000DE
:1040500019462AF053FD0025B0E7FDF7DDFD626843
:10406000002584464FF4807350082946ECFB030179
:104070002B462AF043FDA1E7044851080025081803
:1040800045F100012B462AF039FD97E7000024F4A2
:10409000436ADA0710B406D50168846A4A6822F4D4
:1040A000003222434A609C0706D50168C46A4A6808
:1040B00022F4803222434A60590706D50168046B16
:1040C0004A6822F4802222434A601A0706D5016812
:1040D000446B4A6822F4004222434A60DC0606D55B
:1040E0000168846B8A6822F4805222438A609906B0
:1040F00006D50168C46B8A6822F4005222438A60A4
:104100005A0609D50168046C4A6822F480122243D9
:10411000B4F5801F4A600AD01B0606D50268816C80
:10412000536823F400230B43536010BC70474A6864
:10413000446C22F4C00222434A60EDE770B50023CC
:104140000446C366FCF7C2F923681A6811070546DE
:104150000BD41A68520724D42023002084F8693035
:1041600084F8680084F86A3070BDDE6916F40016C1
:10417000EFD1FCF7ABF9431BB3F1007F2368F4D315
:104180001A6822F4D0721A609A68202122F0010283
:104190009A6084F8691084F8686084F86A100320D3
:1041A00070BDDE6916F48006D6D1FCF78FF9431B8B
:1041B000B3F1007F2368F4D3E2E700BF90B310B5FA
:1041C00090F86930044603F0FF0233B322682423D9
:1041D00084F86930136823F0010320461360FFF769
:1041E000BFFD012817D0636A8BB923685A6822F48F
:1041F00090425A609A6822F02A029A601A6842F045
:10420000010220461A60BDE81040FFF797BF204624
:10421000FFF73EFFE9E7012010BD80F86820FFF7B7
:10422000CBFBD3E70120704708B5024800F068F8DF
:1042300000F004F8E4160308FEE700BF08B50348E1
:1042400000F05EF80120FFF7F7FF00BFF816030843
:104250000B4A08B50346106840B10333094923F0FF
:10426000030303448B4204D8136008BD0648106062
:10427000F3E72AF0CBFD0C2303604FF0FF3008BDBD
:104280008802002000400120E00A0120024B0122A8
:1042900002600B60704700BF0400002000B51446A8
:1042A00083B002460846194644B1064D01940346C0
:1042B0000095054800F00CF8FFF7C0FF034D2C46B1
:1042C000F4E700BF0C1703081C170308D06E03089F
:1042D0000FB400B583B004AB084853F8042B019326
:1042E00080212BF0A9FC002803DD0146034800F0E3
:1042F00019F803B05DF804EB04B070479402002095
:1043000010B504462BF04EFB0146204600F00AF89B
:10431000BDE810400148012100F004B8486F0308CF
:1043200022F030BA08B522F069FA4FF0FF3008BD2C
:1043300008B500F08BF8024B024A9A6008BD00BF36
:1043400000ED00E00000000800F0A0B82DE9F04109
:1043500004462A48DDF8188017461E460D46FFF72A
:10436000B7FF21682648FFF7B3FF61682548FFF7CC
:10437000AFFFA1682448FFF7ABFFE1682348FFF7D0
:10438000A7FF21692248FFF7A3FF61692148FFF7D2
:104390009FFFA1692048FFF79BFFE1691F48204C60
:1043A000FFF796FF1F48FFF793FF29461E48FFF7C8
:1043B0008FFFE16A1D48FFF78BFF216B1C48FFF759
:1043C00087FFE16B1B48FFF783FF2A060AD42B0403
:1043D0000ED41948FFF77CFF41461848BDE8F0416C
:1043E000FFF776BF16483946FFF772FF2B04F0D56A
:1043F00031461448FFF76CFFEBE700BF4C1703088A
:104400005C1703086C1703087C1703088C17030854
:104410009C170308AC170308BC170308CC17030844
:1044200000ED00E0DC170308E8170308F81703089D
:104430000818030818180308481803085018030838
:104440002818030838180308FEE700000D4B0E4833
:104450001A68002142F0010210B41A6099601A68CB
:1044600022F0A8524FF4805422F410221A60DC602B
:104470001A6810BC22F480221A604FF00062996121
:10448000826070470010024000ED00E0254B254996
:104490001A682548120754BFD3F894301B688A68FD
:1044A00054BFC3F30323C3F3031302F00C02082A1F
:1044B00050F823300FD00C2A0FD01C49042A08BF13
:1044C0000B46184A1A4892681A49C2F30312825CD2
:1044D000D3400B607047184BF3E7C868CA6800F018
:1044E0000301C2F30212022902F1010215D00329CD
:1044F00010D1114BB3FBF2F30A4AD168D268C2F370
:104500004162C1F30621013201FB03F35200B3FB08
:10451000F2F3D6E7B3FBF2F3EEE7044BB3FBF2F3AF
:10452000EAE700BF00100240AC1803080024F400C2
:10453000941803080C00002000127A0010B5102116
:104540000446D42010F020FE00F003022243D2B231
:104550001021D42010F000FE1221D42010F014FEFF
:1045600000F0BB0242EA14221221BDE81040D42020
:1045700010F0F2BD08B51021D42010F005FEBDE802
:10458000084000F00F021021D42010F0E5BD00BF5C
:1045900010B515210446D42010F0F6FD00F0EF020E
:1045A0000CB142F01002BDE810401521D42010F0EB
:1045B000D3BD00BF08B510F0CDFDBDE808400F2108
:1045C000D42010F0E1BD00BFF0B5102183B0044647
:1045D000D42010F0D9FD6A46282106230746D420AE
:1045E00010F0EEFD9DF803209DF805309DF8026067
:1045F0009DF804509DF8000006EB022605EB03250C
:104600009DF80120124B07F00C0700EB022053F835
:10461000277000B22AF032F839462AF083F82AF0DF
:1046200047FA36B2208030462AF028F839462AF078
:1046300079F82AF03DFA2DB2608028462AF01EF85B
:1046400039462AF06FF82AF033FAA08003B0F0BDA3
:10465000DC180308F8B5044608460D46D4F8207166
:1046600016462BF09FF9D4F8A02681B22846B84709
:1046700000281BDDD4F82431D4F8A0264FF4AF6114
:1046800030469847431E9BB2B3F5AF6F0CD2B0F5DE
:10469000AF6F08BF18B2002434540A4930462BF0DB
:1046A000B0F938B12046F8BD043001D00420F8BD7F
:1046B0000620F8BD044930462BF0A3F90028F5D0B8
:1046C0000520F8BD101903081C1903082DE9F8434B
:1046D000D0F82081044608460D4616461F462BF0AA
:1046E00061F9D4F8A02681B22846C04700283ADDF7
:1046F000D4F82431D4F8A026002104F5947098470A
:1047000094F828310D2B2ED194F829310A2B2AD177
:10471000851E072D27D904F595783DB300F59470D3
:10472000044401E0013D21D014F8011D1529F9D000
:1047300008EB0503A5F10800002414491C7040444F
:104740002BF05FF98146A8B1A5F1080292B2089B4F
:10475000BA4228BF3A461A80414630462AF084FBC6
:104760002046BDE8F8830420BDE8F88343466FF097
:104770000700E1E7043D0649042208EB05002AF0A2
:1047800063FB089B0520A3F80090EDE710190308D0
:104790001419030810B5164904462BF032F908B174
:1047A000002010BD134920462BF02BF908B1012041
:1047B00010BD114920462BF024F908B1042010BD8A
:1047C0000E4920462BF01DF908B1052010BD0C49FB
:1047D00020462BF016F908B1032010BD09492046E8
:1047E0002BF00FF9002814BF0220FF2010BD00BFDE
:1047F0006C6E0308241903082819030834190308E8
:104800002C1903084019030890F90030A3B3F0B540
:104810000D4600243A2B23D04FF0000C00F1FF3E50
:10482000614611E0A3F15702A3F14107052EA3F160
:104830003703D2B2DBB210D9052F19D803EB01111F
:104840000CF1010C5FFA8CFC1EF8013FA3F1300261
:10485000D2B2092AA3F16106E4D802EB0111EFE715
:104860004FF0010C604490F90030002BD2D1F0BD24
:10487000631C2955DCB2F5E7704700BF2DE9F8430A
:10488000064608460C4690461F462BF08BF810F063
:10489000010522D11FFA80F9D6F82031D6F8A026DA
:1048A00020464946984780B2814502D00420BDE8A1
:1048B000F883D6F82031D6F8A026404639469847E6
:1048C000B8420AD1D6F8243108984FF4FA62294642
:1048D0009847002804DC04300BD00220BDE8F883A0
:1048E000089B09491D5418462BF08BF818B128462F
:1048F000DDE70620DBE7054908982BF082F8002861
:10490000EBD00520D3E700BF101903081C190308DA
:104910004FF6FF72F8B5D0F81431C0F8A02604465F
:104920000020984710B102263046F8BD3A4904F5F8
:1049300094722046FFF78EFE06460028F4D13749D0
:1049400004F595702BF074F80028EDD03546EBB2E5
:10495000062B0ED8DFE803F0454B3E373016040037
:104960002F492BF065F82022014604F168002BF056
:1049700035F82A4900202BF05BF801350028E6D1F4
:104980003046F8BD90F900302D2B37D0303BDAB2ED
:10499000092A3ED8002700225BB202EB820203EB19
:1049A000420210F9013F303BD9B20929F4D907B1CD
:1049B0005242C4F88820DCE70146102204F1580076
:1049C0002BF00CF8D5E70146102204F148002BF03B
:1049D00005F8CEE70146102204F138002AF0FEFF68
:1049E000C7E70146202220462AF0F8FFC1E701462A
:1049F000182204F120002AF0F1FFBAE790F9013003
:104A0000303BDAB2092A00F1010102D80846012739
:104A1000C1E70022CDE700BF441903084C19030881
:104A2000DC57030830B4DDE9024560B159B152B139
:104A30004CB145B1C0E94845C0E94512C0F81C3148
:104A400030BC00207047022030BC70472DE9F04F89
:104A500000F5947483B0054600230E4600F1200152
:104A6000204601932AF074FF704905F229102AF0BC
:104A7000DFFF002800F0B8800DF1040802AF90F9C4
:104A800000102D2900F0A280A1F13002D3B2092B31
:104A900000F2A8804FF0000E002310F9011F4FFA1A
:104AA00082FCA1F13002D1B203EB830309290CEBA4
:104AB0004303F2D9BEF1000F00D05B42DBB25B4989
:104AC00008F8013B00202AF0B3FF08B14745D6D1D2
:104AD000019B574A1BBA934240F2868000235549F6
:104AE00086F8703320462AF033FF2046D5F820712F
:104AF0002AF058FFD5F8A02681B22046B8470528ED
:104B00001BD00427384603B0BDE8F08F043000F016
:104B10005E8196F87073132F2ED9474920462AF0EC
:104B200017FF2046D5F820712AF03CFFD5F8A026C3
:104B300081B22046B8470328E3D1D5F82431D5F80F
:104B4000A0264FF4AF6120469847431E9BB240F227
:104B500076529342DAD800232354384920462AF06B
:104B600050FF002840F02E81354920462AF049FFA9
:104B70000028CED00527C5E7324905F595702AF003
:104B800057FFE8B107EB870807EB480806EB8809F1
:104B9000C8464FF0010B09F124092A4900202AF0E8
:104BA00047FF824660B10BF1FF33052B00F2C28153
:104BB000DFE813F06D0183018F01C001C0012A01FC
:104BC00096F87033013386F87033A6E790F9011038
:104BD000A1F13002D3B2092B00F1010002D84FF04D
:104BE000010E59E700236AE7174922462846FFF7D6
:104BF00031FD0746002885D186F87003114905F577
:104C000095702AF015FF0446002800F0DB8096F826
:104C10007053132D00F2D6807B1E072B00F2C88044
:104C2000DFE803F0648294C6C614C6354C670308F7
:104C30000402050350190308581903081019030842
:104C40001C1903084C1903085C1903082046FFF7D8
:104C5000A1FD2C2303FB0565C14985F82100002037
:104C60002AF0E6FE002800F0AD8096F87033132B92
:104C700000F2A880BA4900202AF0DAFE0446002893
:104C800000F0A08096F87053132D00F29B8094F9E9
:104C900000102D2900F0AC80A1F13002D3B2092B15
:104CA00000F24F810027002314F9011F50B2A1F137
:104CB0003002D1B203EB8303092900EB4303F3D99C
:104CC00007B15B42DBB22C2202FB0562013582F8A0
:104CD0002A30A34986F8705300202AF0A9FE044622
:104CE00000286FD096F87033132B6BD820462AF02B
:104CF00059FE2318002503F8015C96F8703303EB86
:104D0000830203EB4203611C212206EB83002AF09D
:104D100065FE934928462AF08BFE0446002851D0B0
:104D200096F87053132D4DD82C2101FB05612046B8
:104D30002431FFF769FD8A4900202AF079FE0446F4
:104D400000283FD096F87053132D3BD894F90010EB
:104D50002D2941D0A1F13002D3B2092B00F2EF800E
:104D60000027002314F9011F50B2A1F13002D1B283
:104D700003EB8303092900EB4303F3D907B15B423B
:104D80001BB22C2202FB056575496B8400202AF0BA
:104D90004FFEB8B196F87033132B13D8704900202A
:104DA0002AF046FE70B196F87033132B0AD8052707
:104DB0006B4900202AF03CFE0137FFB20446002870
:104DC0007FF425AF0027384603B0BDE8F08F0627F3
:104DD000384603B0BDE8F08F94F90110A1F130021C
:104DE000D3B2092B04F1010400F2A9800127B8E72E
:104DF00094F90110A1F13002D3B2092B04F101049E
:104E000000F29F8001274EE75046FFF7C3FC2C239A
:104E100003FB0763524983F8210000202AF008FEB3
:104E200000283FF4CDAE4E4900202AF001FE0028B4
:104E30003FF4C6AE90F900102D2900F08480A1F156
:104E40003002D3B2092B00F299804FF0000E0023FC
:104E500010F9011F4FFA82FCA1F13002D1B203EB2D
:104E6000830309290CEB4303F2D9BEF1000F00D0F4
:104E70005B42DBB22C2202FB0762394982F82A30FE
:104E800000202AF0D5FD824600283FF499AE504616
:104E90002AF088FD50444FF0000B0AF10101212255
:104EA00000F801BC40462AF099FD2D4958462AF0E9
:104EB000BFFD824600283FF483AE50464946FFF7C7
:104EC000A3FC274900202AF0B3FD824600283FF4C6
:104ED00077AE9AF900102D2944D0A1F13002D3B257
:104EE000092B4DD84FF0000C00231AF9011F50B2C6
:104EF000A1F13002D1B203EB8303092900EB430394
:104F0000F3D9BCF1000F00D05B421BB22C2202FB94
:104F100007621349538400202AF08AFD00283FF4D9
:104F20004FAE0F4900202AF083FD00283FF448AE21
:104F30004FF0050B0BF1010B5FFA8BFB2DE6002305
:104F40001FE70023BFE690F90110A1F13002D3B2B0
:104F5000092B00F1010011D84FF0010E77E700BFD7
:104F60004C1903089AF90110A1F13002D3B2092BB0
:104F70000AF1010A04D84FF0010CB5E7002379E7E4
:104F80000023C3E72DE9F04100F594750446164669
:104F900028460A462E491F462AF0DAFC2846D4F84D
:104FA00020812AF0FFFCD4F8A02681B22846C04711
:104FB00000283FDDD4F82431D4F8A0264FF4AF61A7
:104FC00028469847431E9BB2B3F5AF6F30D2B0F579
:104FD000AF6F08BF18B200232B541E4928462AF091
:104FE00010FD60B31C49324628462AF0B1FC2A461F
:104FF00029462046FFF72EFBE8B9184984F88C7043
:105000003A4628462AF0A4FC2A4629462046FFF7BD
:1050100021FB80B9124928462AF09AFC2A462946E3
:105020002046FFF717FB30B9012384F8D23002E0A5
:10503000043002D00420BDE8F0810620FBE70949D6
:1050400028462AF0DEFC0028F4D00520F3E700BF54
:105050006019030810190308681903087019030878
:10506000781903081C19030870B500F594751C49DC
:10507000044628462AF06CFC2846D4F820612AF021
:1050800091FCD4F8A02681B22846B04700281BDD49
:10509000D4F82431D4F8A0264FF4AF6128469847BD
:1050A000431E9BB2B3F5AF6F0CD2B0F5AF6F08BF24
:1050B00018B200242C540B4928462AF0A2FC38B11F
:1050C000204670BD043001D0042070BD062070BDA4
:1050D000054928462AF095FC0028F5D0052070BD2A
:1050E0007C190308101903081C190308F8B500F50A
:1050F000947504460E4628461F492AF029FC284686
:10510000D4F820712AF04EFCD4F8A02681B22846AB
:10511000B847002823DDD4F82431D4F8A0264FF472
:10512000AF6128469847431E9BB2B3F5AF6F14D2C8
:10513000B0F5AF6F08BF18B200272F540F492846AB
:105140002AF05FFC78B10E4904F595702AF070FCE6
:105150003146FFF759FB3846F8BD043001D0042032
:10516000F8BD0620F8BD074928462AF04AFC002869
:10517000F5D00520F8BD00BF8019030810190308F9
:10518000FC6E03081C19030870B50B7882B00C463E
:10519000064683B1032B0ED006F594756278354927
:1051A00028462AF0D5FB2A4629463046FFF752FA10
:1051B00038B102B070BD6388002BEDD1022002B07F
:1051C00070BD22782C4928462AF0C2FB2A4629467F
:1051D0003046FFF73FFA0028EBD1A288274928463E
:1051E0002AF0B6FB2A4629463046FFF733FA002854
:1051F000DFD123786BB1032B0BD0214928462AF04D
:10520000A7FB2A462946304602B0BDE87040FFF7AA
:1052100021BA62881B4928462AF09AFB2A46294669
:105220003046FFF717FA0028C3D12378FBB9627A1A
:10523000237A1549CDE900322846A279E3792AF08C
:1052400087FB2A4629463046FFF704FA0028B0D1EA
:105250002378032BD1D10D4928462AF079FB2A4621
:1052600029463046FFF7F6F90028A2D1C5E7032BFF
:10527000DDD0C2E7841903088C19030894190308C8
:10528000BC1903089C190308A4190308B4190308DE
:1052900070B500F594754A782049044628462AF0EE
:1052A00057FB2846D4F820612AF07CFBD4F8A026CE
:1052B00081B22846B047002824DDD4F82431D4F840
:1052C000A0264FF4AF6128469847431E9BB2B3F522
:1052D000AF6F15D2B0F5AF6F08BF18B200232B54D3
:1052E0000F4928462AF08DFB80B10E4928462AF046
:1052F0002FFB2A4629462046BDE87040FFF7AAB991
:10530000043001D0042070BD062070BD0649284637
:105310002AF077FB0028F5D0052070BD841903081A
:1053200010190308C41903081C1903082DE9F043D8
:1053300083B0B3F5966FDDF8288028BF4FF49663ED
:1053400000F594750446A8F80030914628460A46B0
:1053500033491F462AF0FCFA2846D4F820612AF087
:1053600021FBD4F8A02681B22846B04700281DDDD5
:10537000D4F82431D4F8A0264FF4AF6128469847DA
:10538000431E9BB2B3F5AF6F15D2B0F5AF6F00D12E
:1053900018B200232B54234928462AF032FB70B957
:1053A000214928462AF02DFB002837D10426304613
:1053B00003B0BDE8F0830430F8D10626F7E70B9A76
:1053C0001A49012A38BF012228462AF0C1FA2A4682
:1053D00029462046FFF73EF9064648B1022EE6D19F
:1053E000022600233046A8F8003003B0BDE8F08361
:1053F0000F493A4628462AF0ABFA00953B464A4602
:1054000020462946FFF73AFA06460028E6D1094920
:1054100028462AF0F6FA0028E2D1C8E70526C6E7B2
:1054200084190308101903081C190308E01903085C
:10543000CC190308D81903082DE9F047B3F5966F86
:10544000DDE9087802D90220BDE8F08700F59476FE
:105450000446154630460A461D4999462AF078FA10
:10546000324631462046FFF7F5F8824628B1194A00
:10547000136801331360BDE8F08717494A46304688
:105480002AF066FA324631462046FFF7E3F818B1B3
:10549000A7F800A0BDE8F0874246012A38BF0122E4
:1054A0000E4930462AF054FA324631462046FFF77C
:1054B000D1F80028C8D10A4930462AF049FA08979D
:1054C0004B462A4631462046BDE8F047FFF7FEB876
:1054D0008419030814030020E8190308F0190308CD
:1054E000F819030800B589B048B90E4BDA6C42F0E0
:1054F0000202DA64DB6C03F002030193019B0A49A8
:105500004FF480420123CDE9022351F8200000220C
:10551000022302A9CDE90423FBF79EF909B05DF847
:1055200004FB00BF0010024044000020034B012296
:1055300053F820004FF48041FBF762BB4400002089
:10554000034B4FF4804153F82000FBF75FBB00BFD3
:105550004400002010B5074CA36898476A2801D082
:10556000012010BD044A2368146044F2304098477B
:10557000002010BD1000002018030020034B1B6802
:1055800013B15B6803B11847704700BF18030020D0
:10559000034B1B6813B11B6B03B11847704700BF67
:1055A0001803002003680021DB681847014B836063
:1055B0000820704759560008704700BF0B8840F616
:1055C0008162934270B50C46054628D00AD8013B4B
:1055D000012B36D8017B1D4B2246032027F0FEFB12
:1055E000032070BD40F6836293422AD1017B174BA2
:1055F0002246032027F0F2FB0C2066792D7BE488FD
:1056000026F07EFD00220281428140F6846206710E
:105610004571C480028026F0BBF9032070BD017B78
:105620000A4B2246032027F0D9FB637985F83431F1
:10563000E188074A85F84830A5F84A10AA60082092
:1056400070BD044BAB60002070BD00BF1C1A030886
:1056500081570008595600080B8840F68B62934228
:1056600070B5054621D8B3F5686F0C460CD96FF4B8
:10567000686213440A2B18D8DFE803F01B173617AB
:105680001717171745176000022B08D86BB1017B5D
:10569000374B2246032027F0A1FB032070BD032BCC
:1056A00003D1344B8360082070BD334BAB600020C6
:1056B00070BD017B2E4B2246032027F08FFB0C2070
:1056C0002D7B6679E48826F01BFD062202720022FB
:1056D000428140F6826206714571C4804572028043
:1056E00026F056F9032070BD0A46214B017B0320AA
:1056F00027F074FB214605F1200026F0D1FC1F4B5A
:10570000AB60082070BD017B194B2246032027F0B7
:1057100065FB0C202D7B6679E48826F0F1FC0622DF
:1057200002720022428140F68A6206714571C4808D
:105730004572028026F02CF9032070BD017B0C4BD2
:105740002246032027F04AFB0C2066792D7BE48853
:1057500026F0D6FC00220281428140F68C6206715E
:105760004571C480028026F013F9032070BD00BF8C
:10577000241A0308BD5500088DA502083D5A0008EB
:105780002DE9F8430B8840F6016293420D4604462A
:105790003BD010D8012B67D0022B60D1017B4D4B41
:1057A0002A46032027F01AFB04F59C7027F0DAFF45
:1057B0000320BDE8F88340F64162934221D1017B8A
:1057C000444B2A46032027F009FB0C20257B94F844
:1057D0004870B4F84A6026F093FC40F68262457146
:1057E00000250771C68005814581028026F0D0F82A
:1057F000394B84F84850A4F84A50A3600820BDE80B
:10580000F88340F64262934229D1324B217B2A46EB
:10581000032027F0E3FA2A8840F642639A4242D0F6
:105820000C20257B94F84870B4F84A6026F068FC98
:10583000022303720023438140F68263077145719E
:10584000C6804572038026F0A3F80023234A84F81B
:105850004830A4F84A30A2600820BDE8F883204B05
:10586000A3600020BDE8F8831A4B017B2A46032081
:1058700027F0B4FA00224FF4967104F59C7027F0DB
:1058800049FF0820257B26F03BFC002340F64162BF
:105890000146028005714371C380204627F00EFF48
:1058A0000320BDE8F8830C206E8994F8489094F8A2
:1058B0000C80B4F84A702D8926F022FC40F68263F1
:1058C00080F8049080F80580C780058146810380B8
:1058D000B9E700BF2C1A0308256C00083D5A0008E0
:1058E000595600082DE9F8430B88032B044600F0B5
:1058F00096800D4631D940F6416293426DD040F614
:10590000426293423AD1484B217B2A46032027F03A
:1059100065FA2A8840F642639A4238D00C20257BEB
:1059200094F84870B4F84A6026F0EAFB0223037248
:105930000023438140F68A6307714571C680457232
:10594000038026F025F80023384A84F84830A4F86C
:105950004A30A2600820BDE8F883012B2DD0022B2D
:1059600010D1017B304B2A46032027F037FA04F58B
:105970009C7027F0F7FE0320BDE8F88340F6016233
:105980009342C0D02A4BA3600020BDE8F8830C20CE
:105990006E8994F8489094F80C80B4F84A702D8978
:1059A00026F0AEFB40F68A6380F8049080F805800C
:1059B000C780058146810380C3E71B4B017B2A46D4
:1059C000032027F00BFA04F59C70002246F2A81180
:1059D00027F0A0FE0320BDE8F883017B124B2A4686
:1059E000032027F0FBF90C20257B94F84870B4F8CD
:1059F0004A6026F085FB40F68A62457100250771F2
:105A0000C68005814581028025F0C2FF094B84F8DC
:105A10004850A4F84A50A3600820BDE8F883064B1C
:105A200083600820BDE8F883381A0308295B000862
:105A3000B96D0008455D0008816100080B8870B5EC
:105A400040F64166B3420D46044646D030D8022B9C
:105A50004DD040F6016293420CD12F4B217B2A4658
:105A6000032027F0BBF92D484FF4D27120F032FF0C
:105A7000032070BD012B4AD1274B017B2A4603200E
:105A800027F0ACF9002242F2107104F59C7027F067
:105A900041FE0820257B26F033FB002301460680CB
:105AA00005714371C380204627F008FE032070BDB6
:105AB00040F642629342D0D040F68362934226D1B0
:105AC0000A46154B017B032027F088F9294604F18B
:105AD000200026F0E5FA032070BD017B0E4B2A461C
